{
  "_format": "hh-sol-artifact-1",
  "contractName": "ColourMeNFT",
  "sourceName": "contracts/ColourMeNFT.sol",
  "abi": [
    {
      "inputs": [
        {
          "internalType": "string",
          "name": "name",
          "type": "string"
        },
        {
          "internalType": "string",
          "name": "symbol",
          "type": "string"
        },
        {
          "internalType": "string",
          "name": "_baseURL",
          "type": "string"
        },
        {
          "internalType": "uint256",
          "name": "_maxSupply",
          "type": "uint256"
        },
        {
          "internalType": "address",
          "name": "_paintRenderer",
          "type": "address"
        },
        {
          "internalType": "address",
          "name": "_owner",
          "type": "address"
        },
        {
          "internalType": "uint96",
          "name": "_royalty",
          "type": "uint96"
        },
        {
          "internalType": "uint256",
          "name": "_mintPrice",
          "type": "uint256"
        },
        {
          "internalType": "uint256",
          "name": "_mintLimit",
          "type": "uint256"
        },
        {
          "internalType": "uint256",
          "name": "_mintStart",
          "type": "uint256"
        },
        {
          "internalType": "uint256",
          "name": "_mintDuration",
          "type": "uint256"
        }
      ],
      "stateMutability": "nonpayable",
      "type": "constructor"
    },
    {
      "inputs": [
        {
          "internalType": "uint256",
          "name": "numerator",
          "type": "uint256"
        },
        {
          "internalType": "uint256",
          "name": "denominator",
          "type": "uint256"
        }
      ],
      "name": "ERC2981InvalidDefaultRoyalty",
      "type": "error"
    },
    {
      "inputs": [
        {
          "internalType": "address",
          "name": "receiver",
          "type": "address"
        }
      ],
      "name": "ERC2981InvalidDefaultRoyaltyReceiver",
      "type": "error"
    },
    {
      "inputs": [
        {
          "internalType": "uint256",
          "name": "tokenId",
          "type": "uint256"
        },
        {
          "internalType": "uint256",
          "name": "numerator",
          "type": "uint256"
        },
        {
          "internalType": "uint256",
          "name": "denominator",
          "type": "uint256"
        }
      ],
      "name": "ERC2981InvalidTokenRoyalty",
      "type": "error"
    },
    {
      "inputs": [
        {
          "internalType": "uint256",
          "name": "tokenId",
          "type": "uint256"
        },
        {
          "internalType": "address",
          "name": "receiver",
          "type": "address"
        }
      ],
      "name": "ERC2981InvalidTokenRoyaltyReceiver",
      "type": "error"
    },
    {
      "inputs": [
        {
          "internalType": "address",
          "name": "sender",
          "type": "address"
        },
        {
          "internalType": "uint256",
          "name": "tokenId",
          "type": "uint256"
        },
        {
          "internalType": "address",
          "name": "owner",
          "type": "address"
        }
      ],
      "name": "ERC721IncorrectOwner",
      "type": "error"
    },
    {
      "inputs": [
        {
          "internalType": "address",
          "name": "operator",
          "type": "address"
        },
        {
          "internalType": "uint256",
          "name": "tokenId",
          "type": "uint256"
        }
      ],
      "name": "ERC721InsufficientApproval",
      "type": "error"
    },
    {
      "inputs": [
        {
          "internalType": "address",
          "name": "approver",
          "type": "address"
        }
      ],
      "name": "ERC721InvalidApprover",
      "type": "error"
    },
    {
      "inputs": [
        {
          "internalType": "address",
          "name": "operator",
          "type": "address"
        }
      ],
      "name": "ERC721InvalidOperator",
      "type": "error"
    },
    {
      "inputs": [
        {
          "internalType": "address",
          "name": "owner",
          "type": "address"
        }
      ],
      "name": "ERC721InvalidOwner",
      "type": "error"
    },
    {
      "inputs": [
        {
          "internalType": "address",
          "name": "receiver",
          "type": "address"
        }
      ],
      "name": "ERC721InvalidReceiver",
      "type": "error"
    },
    {
      "inputs": [
        {
          "internalType": "address",
          "name": "sender",
          "type": "address"
        }
      ],
      "name": "ERC721InvalidSender",
      "type": "error"
    },
    {
      "inputs": [
        {
          "internalType": "uint256",
          "name": "tokenId",
          "type": "uint256"
        }
      ],
      "name": "ERC721NonexistentToken",
      "type": "error"
    },
    {
      "inputs": [
        {
          "internalType": "uint256",
          "name": "required",
          "type": "uint256"
        },
        {
          "internalType": "uint256",
          "name": "sent",
          "type": "uint256"
        }
      ],
      "name": "InsufficientPayment",
      "type": "error"
    },
    {
      "inputs": [
        {
          "internalType": "bytes3",
          "name": "color",
          "type": "bytes3"
        }
      ],
      "name": "InvalidColor",
      "type": "error"
    },
    {
      "inputs": [
        {
          "internalType": "uint256",
          "name": "points",
          "type": "uint256"
        }
      ],
      "name": "InvalidPoints",
      "type": "error"
    },
    {
      "inputs": [],
      "name": "InvalidQuantity",
      "type": "error"
    },
    {
      "inputs": [
        {
          "internalType": "uint8",
          "name": "shape",
          "type": "uint8"
        }
      ],
      "name": "InvalidShape",
      "type": "error"
    },
    {
      "inputs": [
        {
          "internalType": "uint8",
          "name": "stroke",
          "type": "uint8"
        }
      ],
      "name": "InvalidStroke",
      "type": "error"
    },
    {
      "inputs": [
        {
          "internalType": "string",
          "name": "reason",
          "type": "string"
        }
      ],
      "name": "MintingClosed",
      "type": "error"
    },
    {
      "inputs": [
        {
          "internalType": "address",
          "name": "owner",
          "type": "address"
        }
      ],
      "name": "OwnableInvalidOwner",
      "type": "error"
    },
    {
      "inputs": [
        {
          "internalType": "address",
          "name": "account",
          "type": "address"
        }
      ],
      "name": "OwnableUnauthorizedAccount",
      "type": "error"
    },
    {
      "anonymous": false,
      "inputs": [
        {
          "indexed": true,
          "internalType": "address",
          "name": "owner",
          "type": "address"
        },
        {
          "indexed": true,
          "internalType": "address",
          "name": "approved",
          "type": "address"
        },
        {
          "indexed": true,
          "internalType": "uint256",
          "name": "tokenId",
          "type": "uint256"
        }
      ],
      "name": "Approval",
      "type": "event"
    },
    {
      "anonymous": false,
      "inputs": [
        {
          "indexed": true,
          "internalType": "address",
          "name": "owner",
          "type": "address"
        },
        {
          "indexed": true,
          "internalType": "address",
          "name": "operator",
          "type": "address"
        },
        {
          "indexed": false,
          "internalType": "bool",
          "name": "approved",
          "type": "bool"
        }
      ],
      "name": "ApprovalForAll",
      "type": "event"
    },
    {
      "anonymous": false,
      "inputs": [
        {
          "indexed": true,
          "internalType": "uint256",
          "name": "tokenId",
          "type": "uint256"
        },
        {
          "indexed": true,
          "internalType": "address",
          "name": "artist",
          "type": "address"
        }
      ],
      "name": "ArtSaved",
      "type": "event"
    },
    {
      "anonymous": false,
      "inputs": [
        {
          "indexed": false,
          "internalType": "uint256",
          "name": "tokenId",
          "type": "uint256"
        },
        {
          "indexed": false,
          "internalType": "address",
          "name": "to",
          "type": "address"
        },
        {
          "indexed": false,
          "internalType": "uint256",
          "name": "qty",
          "type": "uint256"
        }
      ],
      "name": "CanvasMinted",
      "type": "event"
    },
    {
      "anonymous": false,
      "inputs": [
        {
          "indexed": true,
          "internalType": "address",
          "name": "previousOwner",
          "type": "address"
        },
        {
          "indexed": true,
          "internalType": "address",
          "name": "newOwner",
          "type": "address"
        }
      ],
      "name": "OwnershipTransferred",
      "type": "event"
    },
    {
      "anonymous": false,
      "inputs": [
        {
          "indexed": true,
          "internalType": "address",
          "name": "from",
          "type": "address"
        },
        {
          "indexed": true,
          "internalType": "address",
          "name": "to",
          "type": "address"
        },
        {
          "indexed": true,
          "internalType": "uint256",
          "name": "tokenId",
          "type": "uint256"
        }
      ],
      "name": "Transfer",
      "type": "event"
    },
    {
      "inputs": [
        {
          "internalType": "uint256",
          "name": "tokenId",
          "type": "uint256"
        },
        {
          "components": [
            {
              "internalType": "uint256",
              "name": "base",
              "type": "uint256"
            },
            {
              "internalType": "bytes",
              "name": "additionalPoints",
              "type": "bytes"
            }
          ],
          "internalType": "struct Object[]",
          "name": "_object",
          "type": "tuple[]"
        }
      ],
      "name": "appendArt",
      "outputs": [],
      "stateMutability": "nonpayable",
      "type": "function"
    },
    {
      "inputs": [
        {
          "internalType": "address",
          "name": "to",
          "type": "address"
        },
        {
          "internalType": "uint256",
          "name": "tokenId",
          "type": "uint256"
        }
      ],
      "name": "approve",
      "outputs": [],
      "stateMutability": "nonpayable",
      "type": "function"
    },
    {
      "inputs": [
        {
          "internalType": "uint256",
          "name": "",
          "type": "uint256"
        },
        {
          "internalType": "uint256",
          "name": "",
          "type": "uint256"
        }
      ],
      "name": "art",
      "outputs": [
        {
          "internalType": "uint256",
          "name": "base",
          "type": "uint256"
        },
        {
          "internalType": "bytes",
          "name": "additionalPoints",
          "type": "bytes"
        }
      ],
      "stateMutability": "view",
      "type": "function"
    },
    {
      "inputs": [
        {
          "internalType": "address",
          "name": "owner",
          "type": "address"
        }
      ],
      "name": "balanceOf",
      "outputs": [
        {
          "internalType": "uint256",
          "name": "",
          "type": "uint256"
        }
      ],
      "stateMutability": "view",
      "type": "function"
    },
    {
      "inputs": [
        {
          "internalType": "uint256",
          "name": "tokenId",
          "type": "uint256"
        }
      ],
      "name": "getApproved",
      "outputs": [
        {
          "internalType": "address",
          "name": "",
          "type": "address"
        }
      ],
      "stateMutability": "view",
      "type": "function"
    },
    {
      "inputs": [],
      "name": "getProjectInfo",
      "outputs": [
        {
          "internalType": "string",
          "name": "",
          "type": "string"
        },
        {
          "internalType": "string",
          "name": "",
          "type": "string"
        },
        {
          "internalType": "string",
          "name": "",
          "type": "string"
        },
        {
          "internalType": "uint256",
          "name": "",
          "type": "uint256"
        },
        {
          "internalType": "uint256",
          "name": "",
          "type": "uint256"
        },
        {
          "internalType": "uint256",
          "name": "",
          "type": "uint256"
        },
        {
          "internalType": "uint256",
          "name": "",
          "type": "uint256"
        },
        {
          "internalType": "uint256",
          "name": "",
          "type": "uint256"
        },
        {
          "internalType": "uint256",
          "name": "",
          "type": "uint256"
        }
      ],
      "stateMutability": "view",
      "type": "function"
    },
    {
      "inputs": [
        {
          "internalType": "address",
          "name": "owner",
          "type": "address"
        },
        {
          "internalType": "address",
          "name": "operator",
          "type": "address"
        }
      ],
      "name": "isApprovedForAll",
      "outputs": [
        {
          "internalType": "bool",
          "name": "",
          "type": "bool"
        }
      ],
      "stateMutability": "view",
      "type": "function"
    },
    {
      "inputs": [],
      "name": "maxSupply",
      "outputs": [
        {
          "internalType": "uint256",
          "name": "",
          "type": "uint256"
        }
      ],
      "stateMutability": "view",
      "type": "function"
    },
    {
      "inputs": [
        {
          "internalType": "address",
          "name": "to",
          "type": "address"
        },
        {
          "internalType": "uint256",
          "name": "qty",
          "type": "uint256"
        }
      ],
      "name": "mint",
      "outputs": [],
      "stateMutability": "payable",
      "type": "function"
    },
    {
      "inputs": [],
      "name": "name",
      "outputs": [
        {
          "internalType": "string",
          "name": "",
          "type": "string"
        }
      ],
      "stateMutability": "view",
      "type": "function"
    },
    {
      "inputs": [],
      "name": "owner",
      "outputs": [
        {
          "internalType": "address",
          "name": "",
          "type": "address"
        }
      ],
      "stateMutability": "view",
      "type": "function"
    },
    {
      "inputs": [
        {
          "internalType": "uint256",
          "name": "tokenId",
          "type": "uint256"
        }
      ],
      "name": "ownerOf",
      "outputs": [
        {
          "internalType": "address",
          "name": "",
          "type": "address"
        }
      ],
      "stateMutability": "view",
      "type": "function"
    },
    {
      "inputs": [],
      "name": "renounceOwnership",
      "outputs": [],
      "stateMutability": "nonpayable",
      "type": "function"
    },
    {
      "inputs": [
        {
          "internalType": "uint256",
          "name": "tokenId",
          "type": "uint256"
        },
        {
          "internalType": "uint256",
          "name": "salePrice",
          "type": "uint256"
        }
      ],
      "name": "royaltyInfo",
      "outputs": [
        {
          "internalType": "address",
          "name": "receiver",
          "type": "address"
        },
        {
          "internalType": "uint256",
          "name": "amount",
          "type": "uint256"
        }
      ],
      "stateMutability": "view",
      "type": "function"
    },
    {
      "inputs": [
        {
          "internalType": "address",
          "name": "from",
          "type": "address"
        },
        {
          "internalType": "address",
          "name": "to",
          "type": "address"
        },
        {
          "internalType": "uint256",
          "name": "tokenId",
          "type": "uint256"
        }
      ],
      "name": "safeTransferFrom",
      "outputs": [],
      "stateMutability": "nonpayable",
      "type": "function"
    },
    {
      "inputs": [
        {
          "internalType": "address",
          "name": "from",
          "type": "address"
        },
        {
          "internalType": "address",
          "name": "to",
          "type": "address"
        },
        {
          "internalType": "uint256",
          "name": "tokenId",
          "type": "uint256"
        },
        {
          "internalType": "bytes",
          "name": "data",
          "type": "bytes"
        }
      ],
      "name": "safeTransferFrom",
      "outputs": [],
      "stateMutability": "nonpayable",
      "type": "function"
    },
    {
      "inputs": [
        {
          "internalType": "address",
          "name": "operator",
          "type": "address"
        },
        {
          "internalType": "bool",
          "name": "approved",
          "type": "bool"
        }
      ],
      "name": "setApprovalForAll",
      "outputs": [],
      "stateMutability": "nonpayable",
      "type": "function"
    },
    {
      "inputs": [
        {
          "internalType": "uint256",
          "name": "tokenId",
          "type": "uint256"
        },
        {
          "components": [
            {
              "internalType": "uint256",
              "name": "base",
              "type": "uint256"
            },
            {
              "internalType": "bytes",
              "name": "additionalPoints",
              "type": "bytes"
            }
          ],
          "internalType": "struct Object[]",
          "name": "_art",
          "type": "tuple[]"
        }
      ],
      "name": "setArt",
      "outputs": [],
      "stateMutability": "nonpayable",
      "type": "function"
    },
    {
      "inputs": [
        {
          "internalType": "address",
          "name": "receiver",
          "type": "address"
        },
        {
          "internalType": "uint96",
          "name": "feeNumerator",
          "type": "uint96"
        }
      ],
      "name": "setDefaultRoyalty",
      "outputs": [],
      "stateMutability": "nonpayable",
      "type": "function"
    },
    {
      "inputs": [
        {
          "internalType": "bytes",
          "name": "_svgStart",
          "type": "bytes"
        },
        {
          "internalType": "bytes",
          "name": "_svgEnd",
          "type": "bytes"
        }
      ],
      "name": "setSVG",
      "outputs": [],
      "stateMutability": "nonpayable",
      "type": "function"
    },
    {
      "inputs": [
        {
          "internalType": "bytes4",
          "name": "interfaceId",
          "type": "bytes4"
        }
      ],
      "name": "supportsInterface",
      "outputs": [
        {
          "internalType": "bool",
          "name": "",
          "type": "bool"
        }
      ],
      "stateMutability": "view",
      "type": "function"
    },
    {
      "inputs": [],
      "name": "svgEnd",
      "outputs": [
        {
          "internalType": "bytes",
          "name": "",
          "type": "bytes"
        }
      ],
      "stateMutability": "view",
      "type": "function"
    },
    {
      "inputs": [],
      "name": "svgStart",
      "outputs": [
        {
          "internalType": "bytes",
          "name": "",
          "type": "bytes"
        }
      ],
      "stateMutability": "view",
      "type": "function"
    },
    {
      "inputs": [],
      "name": "symbol",
      "outputs": [
        {
          "internalType": "string",
          "name": "",
          "type": "string"
        }
      ],
      "stateMutability": "view",
      "type": "function"
    },
    {
      "inputs": [],
      "name": "tokenCount",
      "outputs": [
        {
          "internalType": "uint256",
          "name": "",
          "type": "uint256"
        }
      ],
      "stateMutability": "view",
      "type": "function"
    },
    {
      "inputs": [
        {
          "internalType": "uint256",
          "name": "tokenId",
          "type": "uint256"
        }
      ],
      "name": "tokenSVG",
      "outputs": [
        {
          "internalType": "string",
          "name": "",
          "type": "string"
        }
      ],
      "stateMutability": "view",
      "type": "function"
    },
    {
      "inputs": [
        {
          "internalType": "uint256",
          "name": "tokenId",
          "type": "uint256"
        }
      ],
      "name": "tokenURI",
      "outputs": [
        {
          "internalType": "string",
          "name": "",
          "type": "string"
        }
      ],
      "stateMutability": "view",
      "type": "function"
    },
    {
      "inputs": [
        {
          "internalType": "uint256",
          "name": "",
          "type": "uint256"
        }
      ],
      "name": "traitSVG",
      "outputs": [
        {
          "internalType": "bytes",
          "name": "",
          "type": "bytes"
        }
      ],
      "stateMutability": "view",
      "type": "function"
    },
    {
      "inputs": [
        {
          "internalType": "uint256",
          "name": "",
          "type": "uint256"
        }
      ],
      "name": "traits",
      "outputs": [
        {
          "internalType": "bytes3",
          "name": "color0",
          "type": "bytes3"
        },
        {
          "internalType": "bytes3",
          "name": "color1",
          "type": "bytes3"
        },
        {
          "internalType": "bytes3",
          "name": "color2",
          "type": "bytes3"
        },
        {
          "internalType": "bytes3",
          "name": "color3",
          "type": "bytes3"
        },
        {
          "internalType": "bytes3",
          "name": "color4",
          "type": "bytes3"
        },
        {
          "internalType": "enum Path",
          "name": "shape0",
          "type": "uint8"
        },
        {
          "internalType": "enum Path",
          "name": "shape1",
          "type": "uint8"
        },
        {
          "internalType": "uint8",
          "name": "polygon",
          "type": "uint8"
        }
      ],
      "stateMutability": "view",
      "type": "function"
    },
    {
      "inputs": [
        {
          "internalType": "address",
          "name": "from",
          "type": "address"
        },
        {
          "internalType": "address",
          "name": "to",
          "type": "address"
        },
        {
          "internalType": "uint256",
          "name": "tokenId",
          "type": "uint256"
        }
      ],
      "name": "transferFrom",
      "outputs": [],
      "stateMutability": "nonpayable",
      "type": "function"
    },
    {
      "inputs": [
        {
          "internalType": "address",
          "name": "newOwner",
          "type": "address"
        }
      ],
      "name": "transferOwnership",
      "outputs": [],
      "stateMutability": "nonpayable",
      "type": "function"
    }
  ],
  "bytecode": "0x608060405234801561001057600080fd5b5060405161686b38038061686b83398181016040528101906100329190610669565b858b8b816000908161004491906109c8565b50806001908161005491906109c8565b505050600073ffffffffffffffffffffffffffffffffffffffff168173ffffffffffffffffffffffffffffffffffffffff16036100c95760006040517f1e4fbdf70000000000000000000000000000000000000000000000000000000081526004016100c09190610aa9565b60405180910390fd5b6100d88161017a60201b60201c565b5088600990816100e891906109c8565b5087600d8190555086600e60006101000a81548173ffffffffffffffffffffffffffffffffffffffff021916908373ffffffffffffffffffffffffffffffffffffffff16021790555061014e61014261024060201b60201c565b8661026a60201b60201c565b83600f819055508260108190555081601181905550806012819055505050505050505050505050610b2d565b6000600860009054906101000a900473ffffffffffffffffffffffffffffffffffffffff16905081600860006101000a81548173ffffffffffffffffffffffffffffffffffffffff021916908373ffffffffffffffffffffffffffffffffffffffff1602179055508173ffffffffffffffffffffffffffffffffffffffff168173ffffffffffffffffffffffffffffffffffffffff167f8be0079c531659141344cd1fd0a4f28419497f9722a3daafe3b4186f6b6457e060405160405180910390a35050565b6000600860009054906101000a900473ffffffffffffffffffffffffffffffffffffffff16905090565b600061027a61041260201b60201c565b6bffffffffffffffffffffffff16905080826bffffffffffffffffffffffff1611156102df5781816040517f6f483d090000000000000000000000000000000000000000000000000000000081526004016102d6929190610b04565b60405180910390fd5b600073ffffffffffffffffffffffffffffffffffffffff168373ffffffffffffffffffffffffffffffffffffffff16036103515760006040517fb6d9900a0000000000000000000000000000000000000000000000000000000081526004016103489190610aa9565b60405180910390fd5b60405180604001604052808473ffffffffffffffffffffffffffffffffffffffff168152602001836bffffffffffffffffffffffff16815250600660008201518160000160006101000a81548173ffffffffffffffffffffffffffffffffffffffff021916908373ffffffffffffffffffffffffffffffffffffffff16021790555060208201518160000160146101000a8154816bffffffffffffffffffffffff02191690836bffffffffffffffffffffffff160217905550905050505050565b6000612710905090565b6000604051905090565b600080fd5b600080fd5b600080fd5b600080fd5b6000601f19601f8301169050919050565b7f4e487b7100000000000000000000000000000000000000000000000000000000600052604160045260246000fd5b6104838261043a565b810181811067ffffffffffffffff821117156104a2576104a161044b565b5b80604052505050565b60006104b561041c565b90506104c1828261047a565b919050565b600067ffffffffffffffff8211156104e1576104e061044b565b5b6104ea8261043a565b9050602081019050919050565b60005b838110156105155780820151818401526020810190506104fa565b60008484015250505050565b600061053461052f846104c6565b6104ab565b9050828152602081018484840111156105505761054f610435565b5b61055b8482856104f7565b509392505050565b600082601f83011261057857610577610430565b5b8151610588848260208601610521565b91505092915050565b6000819050919050565b6105a481610591565b81146105af57600080fd5b50565b6000815190506105c18161059b565b92915050565b600073ffffffffffffffffffffffffffffffffffffffff82169050919050565b60006105f2826105c7565b9050919050565b610602816105e7565b811461060d57600080fd5b50565b60008151905061061f816105f9565b92915050565b60006bffffffffffffffffffffffff82169050919050565b61064681610625565b811461065157600080fd5b50565b6000815190506106638161063d565b92915050565b60008060008060008060008060008060006101608c8e03121561068f5761068e610426565b5b60008c015167ffffffffffffffff8111156106ad576106ac61042b565b5b6106b98e828f01610563565b9b505060208c015167ffffffffffffffff8111156106da576106d961042b565b5b6106e68e828f01610563565b9a505060408c015167ffffffffffffffff8111156107075761070661042b565b5b6107138e828f01610563565b99505060606107248e828f016105b2565b98505060806107358e828f01610610565b97505060a06107468e828f01610610565b96505060c06107578e828f01610654565b95505060e06107688e828f016105b2565b94505061010061077a8e828f016105b2565b93505061012061078c8e828f016105b2565b92505061014061079e8e828f016105b2565b9150509295989b509295989b9093969950565b600081519050919050565b7f4e487b7100000000000000000000000000000000000000000000000000000000600052602260045260246000fd5b6000600282049050600182168061080357607f821691505b602082108103610816576108156107bc565b5b50919050565b60008190508160005260206000209050919050565b60006020601f8301049050919050565b600082821b905092915050565b60006008830261087e7fffffffffffffffffffffffffffffffffffffffffffffffffffffffffffffffff82610841565b6108888683610841565b95508019841693508086168417925050509392505050565b6000819050919050565b60006108c56108c06108bb84610591565b6108a0565b610591565b9050919050565b6000819050919050565b6108df836108aa565b6108f36108eb826108cc565b84845461084e565b825550505050565b600090565b6109086108fb565b6109138184846108d6565b505050565b5b818110156109375761092c600082610900565b600181019050610919565b5050565b601f82111561097c5761094d8161081c565b61095684610831565b81016020851015610965578190505b61097961097185610831565b830182610918565b50505b505050565b600082821c905092915050565b600061099f60001984600802610981565b1980831691505092915050565b60006109b8838361098e565b9150826002028217905092915050565b6109d1826107b1565b67ffffffffffffffff8111156109ea576109e961044b565b5b6109f482546107eb565b6109ff82828561093b565b600060209050601f831160018114610a325760008415610a20578287015190505b610a2a85826109ac565b865550610a92565b601f198416610a408661081c565b60005b82811015610a6857848901518255600182019150602085019450602081019050610a43565b86831015610a855784890151610a81601f89168261098e565b8355505b6001600288020188555050505b505050505050565b610aa3816105e7565b82525050565b6000602082019050610abe6000830184610a9a565b92915050565b6000610adf610ada610ad584610625565b6108a0565b610591565b9050919050565b610aef81610ac4565b82525050565b610afe81610591565b82525050565b6000604082019050610b196000830185610ae6565b610b266020830184610af5565b9392505050565b615d2f80610b3c6000396000f3fe6080604052600436106101d75760003560e01c806367c897fe11610102578063a22cb46511610095578063d62f7a6711610064578063d62f7a67146106e4578063d97ebf8414610722578063e985e9c51461074b578063f2fde38b14610788576101d7565b8063a22cb4651461062a578063b88d4fde14610653578063c87b56dd1461067c578063d5abeb01146106b9576101d7565b80638da5cb5b116100d15780638da5cb5b1461056c57806395d89b41146105975780639bac5f7a146105c25780639f181b5e146105ff576101d7565b806367c897fe146104ba57806370a08231146104ed578063715018a61461052a57806388e9926214610541576101d7565b806323b872dd1161017a57806342842e0e1161014957806342842e0e146104005780634dec73e91461042957806359f1d9c2146104545780636352211e1461047d576101d7565b806323b872dd146103395780632a55205a146103625780632d72225b146103a057806340c10f19146103e4576101d7565b806306fdde03116101b657806306fdde031461027f578063081812fc146102aa578063095ea7b3146102e75780631565e04714610310576101d7565b8062da1f59146101dc57806301ffc9a71461021957806304634d8d14610256575b600080fd5b3480156101e857600080fd5b5061020360048036038101906101fe9190613dfe565b6107b1565b6040516102109190613ebb565b60405180910390f35b34801561022557600080fd5b50610240600480360381019061023b9190613f35565b610851565b60405161024d9190613f7d565b60405180910390f35b34801561026257600080fd5b5061027d6004803603810190610278919061403a565b6108cb565b005b34801561028b57600080fd5b506102946108e1565b6040516102a191906140cf565b60405180910390f35b3480156102b657600080fd5b506102d160048036038101906102cc9190613dfe565b610973565b6040516102de9190614100565b60405180910390f35b3480156102f357600080fd5b5061030e6004803603810190610309919061411b565b61098f565b005b34801561031c57600080fd5b50610337600480360381019061033291906141c0565b6109a5565b005b34801561034557600080fd5b50610360600480360381019061035b9190614220565b6109b5565b005b34801561036e57600080fd5b5061038960048036038101906103849190614273565b610ab7565b6040516103979291906142c2565b60405180910390f35b3480156103ac57600080fd5b506103c760048036038101906103c29190613dfe565b610be7565b6040516103db9897969594939291906143b9565b60405180910390f35b6103fe60048036038101906103f9919061411b565b610c97565b005b34801561040c57600080fd5b5061042760048036038101906104229190614220565b6110d0565b005b34801561043557600080fd5b5061043e6110f0565b60405161044b9190613ebb565b60405180910390f35b34801561046057600080fd5b5061047b60048036038101906104769190614567565b61117e565b005b34801561048957600080fd5b506104a4600480360381019061049f9190613dfe565b6111aa565b6040516104b19190614100565b60405180910390f35b3480156104c657600080fd5b506104cf6111bc565b6040516104e4999897969594939291906145df565b60405180910390f35b3480156104f957600080fd5b50610514600480360381019061050f9190614681565b611297565b60405161052191906146ae565b60405180910390f35b34801561053657600080fd5b5061053f611351565b005b34801561054d57600080fd5b50610556611365565b6040516105639190613ebb565b60405180910390f35b34801561057857600080fd5b506105816113f3565b60405161058e9190614100565b60405180910390f35b3480156105a357600080fd5b506105ac61141d565b6040516105b991906140cf565b60405180910390f35b3480156105ce57600080fd5b506105e960048036038101906105e49190613dfe565b6114af565b6040516105f691906140cf565b60405180910390f35b34801561060b57600080fd5b506106146115b8565b60405161062191906146ae565b60405180910390f35b34801561063657600080fd5b50610651600480360381019061064c91906146f5565b6115be565b005b34801561065f57600080fd5b5061067a60048036038101906106759190614735565b6115d4565b005b34801561068857600080fd5b506106a3600480360381019061069e9190613dfe565b6115f9565b6040516106b091906140cf565b60405180910390f35b3480156106c557600080fd5b506106ce6116d7565b6040516106db91906146ae565b60405180910390f35b3480156106f057600080fd5b5061070b60048036038101906107069190614273565b6116dd565b6040516107199291906147b8565b60405180910390f35b34801561072e57600080fd5b50610749600480360381019061074491906141c0565b6117a6565b005b34801561075757600080fd5b50610772600480360381019061076d91906147e8565b6117d5565b60405161077f9190613f7d565b60405180910390f35b34801561079457600080fd5b506107af60048036038101906107aa9190614681565b611869565b005b601460205280600052604060002060009150905080546107d090614857565b80601f01602080910402602001604051908101604052809291908181526020018280546107fc90614857565b80156108495780601f1061081e57610100808354040283529160200191610849565b820191906000526020600020905b81548152906001019060200180831161082c57829003601f168201915b505050505081565b60007f9266b9d8000000000000000000000000000000000000000000000000000000007bffffffffffffffffffffffffffffffffffffffffffffffffffffffff1916827bffffffffffffffffffffffffffffffffffffffffffffffffffffffff191614806108c457506108c3826118ef565b5b9050919050565b6108d3611969565b6108dd82826119f0565b5050565b6060600080546108f090614857565b80601f016020809104026020016040519081016040528092919081815260200182805461091c90614857565b80156109695780601f1061093e57610100808354040283529160200191610969565b820191906000526020600020905b81548152906001019060200180831161094c57829003601f168201915b5050505050905090565b600061097e82611b92565b5061098882611c1a565b9050919050565b6109a1828261099c611c57565b611c5f565b5050565b6109b0838383611c71565b505050565b600073ffffffffffffffffffffffffffffffffffffffff168273ffffffffffffffffffffffffffffffffffffffff1603610a275760006040517f64a0ae92000000000000000000000000000000000000000000000000000000008152600401610a1e9190614100565b60405180910390fd5b6000610a3b8383610a36611c57565b611d7c565b90508373ffffffffffffffffffffffffffffffffffffffff168173ffffffffffffffffffffffffffffffffffffffff1614610ab1578382826040517f64283d7b000000000000000000000000000000000000000000000000000000008152600401610aa893929190614888565b60405180910390fd5b50505050565b600080600060076000868152602001908152602001600020905060008160000160009054906101000a900473ffffffffffffffffffffffffffffffffffffffff16905060008260000160149054906101000a90046bffffffffffffffffffffffff169050600073ffffffffffffffffffffffffffffffffffffffff168273ffffffffffffffffffffffffffffffffffffffff1603610b9857600660000160009054906101000a900473ffffffffffffffffffffffffffffffffffffffff169150600660000160149054906101000a90046bffffffffffffffffffffffff1690505b6000610ba2611f96565b6bffffffffffffffffffffffff16826bffffffffffffffffffffffff1688610bca91906148ee565b610bd4919061495f565b9050828195509550505050509250929050565b60136020528060005260406000206000915090508060000160009054906101000a900460e81b908060000160039054906101000a900460e81b908060000160069054906101000a900460e81b908060000160099054906101000a900460e81b9080600001600c9054906101000a900460e81b9080600001600f9054906101000a900460ff16908060000160109054906101000a900460ff16908060000160119054906101000a900460ff16905088565b601154421015610cdc576040517ffa939ce6000000000000000000000000000000000000000000000000000000008152600401610cd3906149dc565b60405180910390fd5b601254601154610cec91906149fc565b421115610d2e576040517ffa939ce6000000000000000000000000000000000000000000000000000000008152600401610d2590614a7c565b60405180910390fd5b600d54600c5410610d74576040517ffa939ce6000000000000000000000000000000000000000000000000000000008152600401610d6b90614ae8565b60405180910390fd5b601054811180610d845750600081145b15610dbb576040517f524f409b00000000000000000000000000000000000000000000000000000000815260040160405180910390fd5b80600f54610dc991906148ee565b341015610e1c5780600f54610dde91906148ee565b346040517fb99e2ab7000000000000000000000000000000000000000000000000000000008152600401610e13929190614b08565b60405180910390fd5b60005b8181101561108e57600c6000815480929190610e3a90614b31565b9190505550610e4b83600c54611fa0565b610e56600c54612099565b60136000600c54815260200190815260200160002060008201518160000160006101000a81548162ffffff021916908360e81c021790555060208201518160000160036101000a81548162ffffff021916908360e81c021790555060408201518160000160066101000a81548162ffffff021916908360e81c021790555060608201518160000160096101000a81548162ffffff021916908360e81c0217905550608082015181600001600c6101000a81548162ffffff021916908360e81c021790555060a082015181600001600f6101000a81548160ff02191690836005811115610f4557610f44614326565b5b021790555060c08201518160000160106101000a81548160ff02191690836005811115610f7557610f74614326565b5b021790555060e08201518160000160116101000a81548160ff021916908360ff160217905550905050600e60009054906101000a900473ffffffffffffffffffffffffffffffffffffffff1673ffffffffffffffffffffffffffffffffffffffff1663bce883ae60136000600c5481526020019081526020016000206040518263ffffffff1660e01b815260040161100d9190614de2565b600060405180830381865afa15801561102a573d6000803e3d6000fd5b505050506040513d6000823e3d601f19601f820116820180604052508101906110539190614e6e565b60146000600c54815260200190815260200160002090816110749190615063565b50600d54600c54031561108e578080600101915050610e1f565b507f8a379962b536b09db691f7d49ba660382ff2236335738e1e6e0275f428731b72600c5483836040516110c493929190615135565b60405180910390a15050565b6110eb838383604051806020016040528060008152506115d4565b505050565b600a80546110fd90614857565b80601f016020809104026020016040519081016040528092919081815260200182805461112990614857565b80156111765780601f1061114b57610100808354040283529160200191611176565b820191906000526020600020905b81548152906001019060200180831161115957829003601f168201915b505050505081565b611186611969565b81600a90816111959190615063565b5080600b90816111a59190615063565b505050565b60006111b582611b92565b9050919050565b60608060606000806000806000806111d26108e1565b6111da61141d565b6009600c54600d54600f546010546011546012548680546111fa90614857565b80601f016020809104026020016040519081016040528092919081815260200182805461122690614857565b80156112735780601f1061124857610100808354040283529160200191611273565b820191906000526020600020905b81548152906001019060200180831161125657829003601f168201915b50505050509650985098509850985098509850985098509850909192939495969798565b60008073ffffffffffffffffffffffffffffffffffffffff168273ffffffffffffffffffffffffffffffffffffffff160361130a5760006040517f89c62b640000000000000000000000000000000000000000000000000000000081526004016113019190614100565b60405180910390fd5b600360008373ffffffffffffffffffffffffffffffffffffffff1673ffffffffffffffffffffffffffffffffffffffff168152602001908152602001600020549050919050565b611359611969565b6113636000612677565b565b600b805461137290614857565b80601f016020809104026020016040519081016040528092919081815260200182805461139e90614857565b80156113eb5780601f106113c0576101008083540402835291602001916113eb565b820191906000526020600020905b8154815290600101906020018083116113ce57829003601f168201915b505050505081565b6000600860009054906101000a900473ffffffffffffffffffffffffffffffffffffffff16905090565b60606001805461142c90614857565b80601f016020809104026020016040519081016040528092919081815260200182805461145890614857565b80156114a55780601f1061147a576101008083540402835291602001916114a5565b820191906000526020600020905b81548152906001019060200180831161148857829003601f168201915b5050505050905090565b60606114ba82611b92565b50600a601460008481526020019081526020016000206114d98461273d565b600e60009054906101000a900473ffffffffffffffffffffffffffffffffffffffff1673ffffffffffffffffffffffffffffffffffffffff16637889b615601560008881526020019081526020016000206040518263ffffffff1660e01b81526004016115469190615343565b600060405180830381865afa158015611563573d6000803e3d6000fd5b505050506040513d6000823e3d601f19601f8201168201806040525081019061158c9190614e6e565b600b6040516020016115a295949392919061556a565b6040516020818303038152906040529050919050565b600c5481565b6115d06115c9611c57565b838361280b565b5050565b6115df8484846109b5565b6115f36115ea611c57565b8585858561297a565b50505050565b606061160482611b92565b50600e60009054906101000a900473ffffffffffffffffffffffffffffffffffffffff1673ffffffffffffffffffffffffffffffffffffffff1663240c6a7761164b6108e1565b846009611657876114af565b601360008981526020019081526020016000206040518663ffffffff1660e01b815260040161168a95949392919061566f565b600060405180830381865afa1580156116a7573d6000803e3d6000fd5b505050506040513d6000823e3d601f19601f820116820180604052508101906116d09190614e6e565b9050919050565b600d5481565b601560205281600052604060002081815481106116f957600080fd5b90600052602060002090600202016000915091505080600001549080600101805461172390614857565b80601f016020809104026020016040519081016040528092919081815260200182805461174f90614857565b801561179c5780601f106117715761010080835404028352916020019161179c565b820191906000526020600020905b81548152906001019060200180831161177f57829003601f168201915b5050505050905082565b6015600084815260200190815260200160002060006117c59190613bab565b6117d0838383611c71565b505050565b6000600560008473ffffffffffffffffffffffffffffffffffffffff1673ffffffffffffffffffffffffffffffffffffffff16815260200190815260200160002060008373ffffffffffffffffffffffffffffffffffffffff1673ffffffffffffffffffffffffffffffffffffffff16815260200190815260200160002060009054906101000a900460ff16905092915050565b611871611969565b600073ffffffffffffffffffffffffffffffffffffffff168173ffffffffffffffffffffffffffffffffffffffff16036118e35760006040517f1e4fbdf70000000000000000000000000000000000000000000000000000000081526004016118da9190614100565b60405180910390fd5b6118ec81612677565b50565b60007f2a55205a000000000000000000000000000000000000000000000000000000007bffffffffffffffffffffffffffffffffffffffffffffffffffffffff1916827bffffffffffffffffffffffffffffffffffffffffffffffffffffffff19161480611962575061196182612b2b565b5b9050919050565b611971611c57565b73ffffffffffffffffffffffffffffffffffffffff1661198f6113f3565b73ffffffffffffffffffffffffffffffffffffffff16146119ee576119b2611c57565b6040517f118cdaa70000000000000000000000000000000000000000000000000000000081526004016119e59190614100565b60405180910390fd5b565b60006119fa611f96565b6bffffffffffffffffffffffff16905080826bffffffffffffffffffffffff161115611a5f5781816040517f6f483d09000000000000000000000000000000000000000000000000000000008152600401611a56929190615709565b60405180910390fd5b600073ffffffffffffffffffffffffffffffffffffffff168373ffffffffffffffffffffffffffffffffffffffff1603611ad15760006040517fb6d9900a000000000000000000000000000000000000000000000000000000008152600401611ac89190614100565b60405180910390fd5b60405180604001604052808473ffffffffffffffffffffffffffffffffffffffff168152602001836bffffffffffffffffffffffff16815250600660008201518160000160006101000a81548173ffffffffffffffffffffffffffffffffffffffff021916908373ffffffffffffffffffffffffffffffffffffffff16021790555060208201518160000160146101000a8154816bffffffffffffffffffffffff02191690836bffffffffffffffffffffffff160217905550905050505050565b600080611b9e83612c0d565b9050600073ffffffffffffffffffffffffffffffffffffffff168173ffffffffffffffffffffffffffffffffffffffff1603611c1157826040517f7e273289000000000000000000000000000000000000000000000000000000008152600401611c0891906146ae565b60405180910390fd5b80915050919050565b60006004600083815260200190815260200160002060009054906101000a900473ffffffffffffffffffffffffffffffffffffffff169050919050565b600033905090565b611c6c8383836001612c4a565b505050565b60005b82829050811015611d3257611cb684848484818110611c9657611c95615732565b5b9050602002810190611ca89190615770565b611cb19061580e565b612e0f565b60156000858152602001908152602001600020838383818110611cdc57611cdb615732565b5b9050602002810190611cee9190615770565b90806001815401808255809150506001900390600052602060002090600202016000909190919091508181611d239190615a3d565b50508080600101915050611c74565b503373ffffffffffffffffffffffffffffffffffffffff16837fb921e941791c53f00f9f5e717e838912e6ff916fdf3fdaa86b8dbe0a0bcba9e960405160405180910390a3505050565b600080611d8884612c0d565b9050600073ffffffffffffffffffffffffffffffffffffffff168373ffffffffffffffffffffffffffffffffffffffff1614611dca57611dc98184866135f3565b5b600073ffffffffffffffffffffffffffffffffffffffff168173ffffffffffffffffffffffffffffffffffffffff1614611e5b57611e0c600085600080612c4a565b6001600360008373ffffffffffffffffffffffffffffffffffffffff1673ffffffffffffffffffffffffffffffffffffffff168152602001908152602001600020600082825403925050819055505b600073ffffffffffffffffffffffffffffffffffffffff168573ffffffffffffffffffffffffffffffffffffffff1614611ede576001600360008773ffffffffffffffffffffffffffffffffffffffff1673ffffffffffffffffffffffffffffffffffffffff168152602001908152602001600020600082825401925050819055505b846002600086815260200190815260200160002060006101000a81548173ffffffffffffffffffffffffffffffffffffffff021916908373ffffffffffffffffffffffffffffffffffffffff160217905550838573ffffffffffffffffffffffffffffffffffffffff168273ffffffffffffffffffffffffffffffffffffffff167fddf252ad1be2c89b69c2b068fc378daa952ba7f163c4a11628f55a4df523b3ef60405160405180910390a4809150509392505050565b6000612710905090565b600073ffffffffffffffffffffffffffffffffffffffff168273ffffffffffffffffffffffffffffffffffffffff16036120125760006040517f64a0ae920000000000000000000000000000000000000000000000000000000081526004016120099190614100565b60405180910390fd5b600061202083836000611d7c565b9050600073ffffffffffffffffffffffffffffffffffffffff168173ffffffffffffffffffffffffffffffffffffffff16146120945760006040517f73c6ac6e00000000000000000000000000000000000000000000000000000000815260040161208b9190614100565b60405180910390fd5b505050565b6120a1613bcf565b6000600567ffffffffffffffff8111156120be576120bd61443c565b5b6040519080825280602002602001820160405280156120ec5781602001602082028036833780820191505090505b5090506120fe83600162fffffe6136b7565b8160008151811061211257612111615732565b5b602002602001019062ffffff16908162ffffff16815250506121598160008151811061214157612140615732565b5b602002602001015162ffffff16600162fffffd6136b7565b8160018151811061216d5761216c615732565b5b602002602001019062ffffff16908162ffffff1681525050612190816001613721565b90506121c1816001815181106121a9576121a8615732565b5b602002602001015162ffffff16600162fffffc6136b7565b816002815181106121d5576121d4615732565b5b602002602001019062ffffff16908162ffffff16815250506121f8816002613721565b90506122298160028151811061221157612210615732565b5b602002602001015162ffffff16600162fffffb6136b7565b8160038151811061223d5761223c615732565b5b602002602001019062ffffff16908162ffffff1681525050612260816003613721565b90506122918160038151811061227957612278615732565b5b602002602001015162ffffff16600162fffffa6136b7565b816004815181106122a5576122a4615732565b5b602002602001019062ffffff16908162ffffff16815250506122c8816004613721565b90506000600267ffffffffffffffff8111156122e7576122e661443c565b5b6040519080825280602002602001820160405280156123155781602001602082028036833780820191505090505b5090506123458260048151811061232f5761232e615732565b5b602002602001015162ffffff16600060036136b7565b8160008151811061235957612358615732565b5b602002602001019060ff16908160ff16815250506123988160008151811061238457612383615732565b5b602002602001015160ff16600060026136b7565b816001815181106123ac576123ab615732565b5b602002602001019060ff16908160ff1681525050806000815181106123d4576123d3615732565b5b602002602001015160ff16816001815181106123f3576123f2615732565b5b602002602001015160ff1610612437578060018151811061241757612416615732565b5b60200260200101805180919061242c90615a4b565b60ff1660ff16815250505b6000612464826001815181106124505761244f615732565b5b602002602001015160ff16600460066136b7565b905060048160ff160361247657600390505b6040518061010001604052808460008151811061249657612495615732565b5b602002602001015160e81b7cffffffffffffffffffffffffffffffffffffffffffffffffffffffffff19168152602001846001815181106124da576124d9615732565b5b602002602001015160e81b7cffffffffffffffffffffffffffffffffffffffffffffffffffffffffff191681526020018460028151811061251e5761251d615732565b5b602002602001015160e81b7cffffffffffffffffffffffffffffffffffffffffffffffffffffffffff191681526020018460038151811061256257612561615732565b5b602002602001015160e81b7cffffffffffffffffffffffffffffffffffffffffffffffffffffffffff19168152602001846004815181106125a6576125a5615732565b5b602002602001015160e81b7cffffffffffffffffffffffffffffffffffffffffffffffffffffffffff19168152602001836000815181106125ea576125e9615732565b5b602002602001015160ff16600581111561260757612606614326565b5b600581111561261957612618614326565b5b81526020018360018151811061263257612631615732565b5b602002602001015160ff16600581111561264f5761264e614326565b5b600581111561266157612660614326565b5b81526020018260ff168152509350505050919050565b6000600860009054906101000a900473ffffffffffffffffffffffffffffffffffffffff16905081600860006101000a81548173ffffffffffffffffffffffffffffffffffffffff021916908373ffffffffffffffffffffffffffffffffffffffff1602179055508173ffffffffffffffffffffffffffffffffffffffff168173ffffffffffffffffffffffffffffffffffffffff167f8be0079c531659141344cd1fd0a4f28419497f9722a3daafe3b4186f6b6457e060405160405180910390a35050565b60606000600161274c846137d0565b01905060008167ffffffffffffffff81111561276b5761276a61443c565b5b6040519080825280601f01601f19166020018201604052801561279d5781602001600182028036833780820191505090505b509050600082602083010190505b600115612800578080600190039150507f3031323334353637383961626364656600000000000000000000000000000000600a86061a8153600a85816127f4576127f3614930565b5b049450600085036127ab575b819350505050919050565b600073ffffffffffffffffffffffffffffffffffffffff168273ffffffffffffffffffffffffffffffffffffffff160361287c57816040517f5b08ba180000000000000000000000000000000000000000000000000000000081526004016128739190614100565b60405180910390fd5b80600560008573ffffffffffffffffffffffffffffffffffffffff1673ffffffffffffffffffffffffffffffffffffffff16815260200190815260200160002060008473ffffffffffffffffffffffffffffffffffffffff1673ffffffffffffffffffffffffffffffffffffffff16815260200190815260200160002060006101000a81548160ff0219169083151502179055508173ffffffffffffffffffffffffffffffffffffffff168373ffffffffffffffffffffffffffffffffffffffff167f17307eab39ab6107e8899845ad3d59bd9653f200f220920489ca2b5937696c318360405161296d9190613f7d565b60405180910390a3505050565b60008373ffffffffffffffffffffffffffffffffffffffff163b1115612b24578273ffffffffffffffffffffffffffffffffffffffff1663150b7a02868685856040518563ffffffff1660e01b81526004016129d99493929190615a74565b6020604051808303816000875af1925050508015612a1557506040513d601f19601f82011682018060405250810190612a129190615ad5565b60015b612a99573d8060008114612a45576040519150601f19603f3d011682016040523d82523d6000602084013e612a4a565b606091505b506000815103612a9157836040517f64a0ae92000000000000000000000000000000000000000000000000000000008152600401612a889190614100565b60405180910390fd5b805160208201fd5b63150b7a0260e01b7bffffffffffffffffffffffffffffffffffffffffffffffffffffffff1916817bffffffffffffffffffffffffffffffffffffffffffffffffffffffff191614612b2257836040517f64a0ae92000000000000000000000000000000000000000000000000000000008152600401612b199190614100565b60405180910390fd5b505b5050505050565b60007f80ac58cd000000000000000000000000000000000000000000000000000000007bffffffffffffffffffffffffffffffffffffffffffffffffffffffff1916827bffffffffffffffffffffffffffffffffffffffffffffffffffffffff19161480612bf657507f5b5e139f000000000000000000000000000000000000000000000000000000007bffffffffffffffffffffffffffffffffffffffffffffffffffffffff1916827bffffffffffffffffffffffffffffffffffffffffffffffffffffffff1916145b80612c065750612c0582613923565b5b9050919050565b60006002600083815260200190815260200160002060009054906101000a900473ffffffffffffffffffffffffffffffffffffffff169050919050565b8080612c835750600073ffffffffffffffffffffffffffffffffffffffff168273ffffffffffffffffffffffffffffffffffffffff1614155b15612db7576000612c9384611b92565b9050600073ffffffffffffffffffffffffffffffffffffffff168373ffffffffffffffffffffffffffffffffffffffff1614158015612cfe57508273ffffffffffffffffffffffffffffffffffffffff168173ffffffffffffffffffffffffffffffffffffffff1614155b8015612d115750612d0f81846117d5565b155b15612d5357826040517fa9fbf51f000000000000000000000000000000000000000000000000000000008152600401612d4a9190614100565b60405180910390fd5b8115612db557838573ffffffffffffffffffffffffffffffffffffffff168273ffffffffffffffffffffffffffffffffffffffff167f8c5be1e5ebec7d5bd14f71427d1e84f3dd0314c0f7b2291e5b200ac8c7c3b92560405160405180910390a45b505b836004600085815260200190815260200160002060006101000a81548173ffffffffffffffffffffffffffffffffffffffff021916908373ffffffffffffffffffffffffffffffffffffffff16021790555050505050565b6000612e1e826000015161398d565b9050600060e81b817cffffffffffffffffffffffffffffffffffffffffffffffffffffffffff19161480612e77575062ffffff60e81b817cffffffffffffffffffffffffffffffffffffffffffffffffffffffffff1916145b80612ee457506013600084815260200190815260200160002060000160009054906101000a900460e81b7cffffffffffffffffffffffffffffffffffffffffffffffffffffffffff1916817cffffffffffffffffffffffffffffffffffffffffffffffffffffffffff1916145b80612f5157506013600084815260200190815260200160002060000160039054906101000a900460e81b7cffffffffffffffffffffffffffffffffffffffffffffffffffffffffff1916817cffffffffffffffffffffffffffffffffffffffffffffffffffffffffff1916145b80612fbe57506013600084815260200190815260200160002060000160069054906101000a900460e81b7cffffffffffffffffffffffffffffffffffffffffffffffffffffffffff1916817cffffffffffffffffffffffffffffffffffffffffffffffffffffffffff1916145b8061302b57506013600084815260200190815260200160002060000160099054906101000a900460e81b7cffffffffffffffffffffffffffffffffffffffffffffffffffffffffff1916817cffffffffffffffffffffffffffffffffffffffffffffffffffffffffff1916145b80613098575060136000848152602001908152602001600020600001600c9054906101000a900460e81b7cffffffffffffffffffffffffffffffffffffffffffffffffffffffffff1916817cffffffffffffffffffffffffffffffffffffffffffffffffffffffffff1916145b6130d957806040517ff30098e70000000000000000000000000000000000000000000000000000000081526004016130d09190615b02565b60405180910390fd5b60006130e8836000015161399e565b9050600060136000868152602001908152602001600020600001600f9054906101000a900460ff16600581111561312257613121614326565b5b82600581111561313557613134614326565b5b148061318757506013600086815260200190815260200160002060000160109054906101000a900460ff16600581111561317257613171614326565b5b82600581111561318557613184614326565b5b145b806131b65750600460058111156131a1576131a0614326565b5b8260058111156131b4576131b3614326565b5b145b806131e457506005808111156131cf576131ce614326565b5b8260058111156131e2576131e1614326565b5b145b90508015801561321857506000600581111561320357613202614326565b5b82600581111561321657613215614326565b5b145b156132e057600061322c8560000151613a0e565b9050600a8160006002811061324457613243615732565b5b60200201516000015160010b14801561327c5750605a8160006002811061326e5761326d615732565b5b60200201516020015160010b145b80156132a857506103d48160016002811061329a57613299615732565b5b60200201516000015160010b145b80156132d45750610384816001600281106132c6576132c5615732565b5b60200201516020015160010b145b156132de57600191505b505b80613334578160058111156132f8576132f7614326565b5b6040517fd353599c00000000000000000000000000000000000000000000000000000000815260040161332b9190615b1d565b60405180910390fd5b60006133438560000151613ace565b905060028161ffff16101561338f57806040517fd3c6c3ae0000000000000000000000000000000000000000000000000000000081526004016133869190615b77565b60405180910390fd5b600060058111156133a3576133a2614326565b5b8360058111156133b6576133b5614326565b5b14806133e65750600260058111156133d1576133d0614326565b5b8360058111156133e4576133e3614326565b5b145b80613415575060016005811115613400576133ff614326565b5b83600581111561341357613412614326565b5b145b8015613426575060028161ffff1614155b1561346857806040517fd3c6c3ae00000000000000000000000000000000000000000000000000000000815260040161345f9190615b77565b60405180910390fd5b6004600581111561347c5761347b614326565b5b83600581111561348f5761348e614326565b5b03613503576013600087815260200190815260200160002060000160119054906101000a900460ff1660ff168161ffff161461350257806040517fd3c6c3ae0000000000000000000000000000000000000000000000000000000081526004016134f99190615b77565b60405180910390fd5b5b60006135128660000151613adc565b905060008160ff161480156135a857506001600581111561353657613535614326565b5b84600581111561354957613548614326565b5b148061357957506003600581111561356457613563614326565b5b84600581111561357757613576614326565b5b145b806135a7575060058081111561359257613591614326565b5b8460058111156135a5576135a4614326565b5b145b5b156135ea57806040517fdd76e3540000000000000000000000000000000000000000000000000000000081526004016135e19190615b1d565b60405180910390fd5b50505050505050565b6135fe838383613aea565b6136b257600073ffffffffffffffffffffffffffffffffffffffff168373ffffffffffffffffffffffffffffffffffffffff160361367357806040517f7e27328900000000000000000000000000000000000000000000000000000000815260040161366a91906146ae565b60405180910390fd5b81816040517f177e802f0000000000000000000000000000000000000000000000000000000081526004016136a99291906142c2565b60405180910390fd5b505050565b600082600184846136c89190615b92565b6136d291906149fc565b85424443336040516020016136eb959493929190615c2f565b6040516020818303038152906040528051906020012060001c61370e9190615c8e565b61371891906149fc565b90509392505050565b606060005b8260ff168160ff1610156137c657838160ff168151811061374a57613749615732565b5b602002602001015162ffffff16848460ff168151811061376d5761376c615732565b5b602002602001015162ffffff16106137b957838360ff168151811061379557613794615732565b5b6020026020010180518091906137aa90615cce565b62ffffff1662ffffff16815250505b8080600101915050613726565b5082905092915050565b600080600090507a184f03e93ff9f4daa797ed6e38ed64bf6a1f010000000000000000831061382e577a184f03e93ff9f4daa797ed6e38ed64bf6a1f010000000000000000838161382457613823614930565b5b0492506040810190505b6d04ee2d6d415b85acef8100000000831061386b576d04ee2d6d415b85acef8100000000838161386157613860614930565b5b0492506020810190505b662386f26fc10000831061389a57662386f26fc1000083816138905761388f614930565b5b0492506010810190505b6305f5e10083106138c3576305f5e10083816138b9576138b8614930565b5b0492506008810190505b61271083106138e85761271083816138de576138dd614930565b5b0492506004810190505b6064831061390b576064838161390157613900614930565b5b0492506002810190505b600a831061391a576001810190505b80915050919050565b60007f01ffc9a7000000000000000000000000000000000000000000000000000000007bffffffffffffffffffffffffffffffffffffffffffffffffffffffff1916827bffffffffffffffffffffffffffffffffffffffffffffffffffffffff1916149050919050565b6000600382901c60e81b9050919050565b60008060078316905060058160ff1611156139f057806040517fd353599c0000000000000000000000000000000000000000000000000000000081526004016139e79190615b1d565b60405180910390fd5b8060ff166005811115613a0657613a05614326565b5b915050919050565b613a16613cdb565b6000613a2183613ace565b905060028161ffff161015613a6d57806040517fd3c6c3ae000000000000000000000000000000000000000000000000000000008152600401613a649190615b77565b60405180910390fd5b60405180604001604052806040518060400160405280603387901c60010b8152602001604387901c60010b81525081526020016040518060400160405280605387901c60010b8152602001606387901c60010b815250815250915050919050565b6000602382901c9050919050565b6000601b82901c9050919050565b60008073ffffffffffffffffffffffffffffffffffffffff168373ffffffffffffffffffffffffffffffffffffffff1614158015613ba257508273ffffffffffffffffffffffffffffffffffffffff168473ffffffffffffffffffffffffffffffffffffffff161480613b635750613b6284846117d5565b5b80613ba157508273ffffffffffffffffffffffffffffffffffffffff16613b8983611c1a565b73ffffffffffffffffffffffffffffffffffffffff16145b5b90509392505050565b5080546000825560020290600052602060002090810190613bcc9190613d08565b50565b60405180610100016040528060007cffffffffffffffffffffffffffffffffffffffffffffffffffffffffff1916815260200160007cffffffffffffffffffffffffffffffffffffffffffffffffffffffffff1916815260200160007cffffffffffffffffffffffffffffffffffffffffffffffffffffffffff1916815260200160007cffffffffffffffffffffffffffffffffffffffffffffffffffffffffff1916815260200160007cffffffffffffffffffffffffffffffffffffffffffffffffffffffffff1916815260200160006005811115613cb257613cb1614326565b5b815260200160006005811115613ccb57613cca614326565b5b8152602001600060ff1681525090565b60405180604001604052806002905b613cf2613d37565b815260200190600190039081613cea5790505090565b5b80821115613d3357600080820160009055600182016000613d2a9190613d57565b50600201613d09565b5090565b6040518060400160405280600060010b8152602001600060010b81525090565b508054613d6390614857565b6000825580601f10613d755750613d94565b601f016020900490600052602060002090810190613d939190613d97565b5b50565b5b80821115613db0576000816000905550600101613d98565b5090565b6000604051905090565b600080fd5b600080fd5b6000819050919050565b613ddb81613dc8565b8114613de657600080fd5b50565b600081359050613df881613dd2565b92915050565b600060208284031215613e1457613e13613dbe565b5b6000613e2284828501613de9565b91505092915050565b600081519050919050565b600082825260208201905092915050565b60005b83811015613e65578082015181840152602081019050613e4a565b60008484015250505050565b6000601f19601f8301169050919050565b6000613e8d82613e2b565b613e978185613e36565b9350613ea7818560208601613e47565b613eb081613e71565b840191505092915050565b60006020820190508181036000830152613ed58184613e82565b905092915050565b60007fffffffff0000000000000000000000000000000000000000000000000000000082169050919050565b613f1281613edd565b8114613f1d57600080fd5b50565b600081359050613f2f81613f09565b92915050565b600060208284031215613f4b57613f4a613dbe565b5b6000613f5984828501613f20565b91505092915050565b60008115159050919050565b613f7781613f62565b82525050565b6000602082019050613f926000830184613f6e565b92915050565b600073ffffffffffffffffffffffffffffffffffffffff82169050919050565b6000613fc382613f98565b9050919050565b613fd381613fb8565b8114613fde57600080fd5b50565b600081359050613ff081613fca565b92915050565b60006bffffffffffffffffffffffff82169050919050565b61401781613ff6565b811461402257600080fd5b50565b6000813590506140348161400e565b92915050565b6000806040838503121561405157614050613dbe565b5b600061405f85828601613fe1565b925050602061407085828601614025565b9150509250929050565b600081519050919050565b600082825260208201905092915050565b60006140a18261407a565b6140ab8185614085565b93506140bb818560208601613e47565b6140c481613e71565b840191505092915050565b600060208201905081810360008301526140e98184614096565b905092915050565b6140fa81613fb8565b82525050565b600060208201905061411560008301846140f1565b92915050565b6000806040838503121561413257614131613dbe565b5b600061414085828601613fe1565b925050602061415185828601613de9565b9150509250929050565b600080fd5b600080fd5b600080fd5b60008083601f8401126141805761417f61415b565b5b8235905067ffffffffffffffff81111561419d5761419c614160565b5b6020830191508360208202830111156141b9576141b8614165565b5b9250929050565b6000806000604084860312156141d9576141d8613dbe565b5b60006141e786828701613de9565b935050602084013567ffffffffffffffff81111561420857614207613dc3565b5b6142148682870161416a565b92509250509250925092565b60008060006060848603121561423957614238613dbe565b5b600061424786828701613fe1565b935050602061425886828701613fe1565b925050604061426986828701613de9565b9150509250925092565b6000806040838503121561428a57614289613dbe565b5b600061429885828601613de9565b92505060206142a985828601613de9565b9150509250929050565b6142bc81613dc8565b82525050565b60006040820190506142d760008301856140f1565b6142e460208301846142b3565b9392505050565b60007fffffff000000000000000000000000000000000000000000000000000000000082169050919050565b614320816142eb565b82525050565b7f4e487b7100000000000000000000000000000000000000000000000000000000600052602160045260246000fd5b6006811061436657614365614326565b5b50565b600081905061437782614355565b919050565b600061438782614369565b9050919050565b6143978161437c565b82525050565b600060ff82169050919050565b6143b38161439d565b82525050565b6000610100820190506143cf600083018b614317565b6143dc602083018a614317565b6143e96040830189614317565b6143f66060830188614317565b6144036080830187614317565b61441060a083018661438e565b61441d60c083018561438e565b61442a60e08301846143aa565b9998505050505050505050565b600080fd5b7f4e487b7100000000000000000000000000000000000000000000000000000000600052604160045260246000fd5b61447482613e71565b810181811067ffffffffffffffff821117156144935761449261443c565b5b80604052505050565b60006144a6613db4565b90506144b2828261446b565b919050565b600067ffffffffffffffff8211156144d2576144d161443c565b5b6144db82613e71565b9050602081019050919050565b82818337600083830152505050565b600061450a614505846144b7565b61449c565b90508281526020810184848401111561452657614525614437565b5b6145318482856144e8565b509392505050565b600082601f83011261454e5761454d61415b565b5b813561455e8482602086016144f7565b91505092915050565b6000806040838503121561457e5761457d613dbe565b5b600083013567ffffffffffffffff81111561459c5761459b613dc3565b5b6145a885828601614539565b925050602083013567ffffffffffffffff8111156145c9576145c8613dc3565b5b6145d585828601614539565b9150509250929050565b60006101208201905081810360008301526145fa818c614096565b9050818103602083015261460e818b614096565b90508181036040830152614622818a614096565b905061463160608301896142b3565b61463e60808301886142b3565b61464b60a08301876142b3565b61465860c08301866142b3565b61466560e08301856142b3565b6146736101008301846142b3565b9a9950505050505050505050565b60006020828403121561469757614696613dbe565b5b60006146a584828501613fe1565b91505092915050565b60006020820190506146c360008301846142b3565b92915050565b6146d281613f62565b81146146dd57600080fd5b50565b6000813590506146ef816146c9565b92915050565b6000806040838503121561470c5761470b613dbe565b5b600061471a85828601613fe1565b925050602061472b858286016146e0565b9150509250929050565b6000806000806080858703121561474f5761474e613dbe565b5b600061475d87828801613fe1565b945050602061476e87828801613fe1565b935050604061477f87828801613de9565b925050606085013567ffffffffffffffff8111156147a05761479f613dc3565b5b6147ac87828801614539565b91505092959194509250565b60006040820190506147cd60008301856142b3565b81810360208301526147df8184613e82565b90509392505050565b600080604083850312156147ff576147fe613dbe565b5b600061480d85828601613fe1565b925050602061481e85828601613fe1565b9150509250929050565b7f4e487b7100000000000000000000000000000000000000000000000000000000600052602260045260246000fd5b6000600282049050600182168061486f57607f821691505b60208210810361488257614881614828565b5b50919050565b600060608201905061489d60008301866140f1565b6148aa60208301856142b3565b6148b760408301846140f1565b949350505050565b7f4e487b7100000000000000000000000000000000000000000000000000000000600052601160045260246000fd5b60006148f982613dc8565b915061490483613dc8565b925082820261491281613dc8565b91508282048414831517614929576149286148bf565b5b5092915050565b7f4e487b7100000000000000000000000000000000000000000000000000000000600052601260045260246000fd5b600061496a82613dc8565b915061497583613dc8565b92508261498557614984614930565b5b828204905092915050565b7f4d696e74206e6f74207374617274656400000000000000000000000000000000600082015250565b60006149c6601083614085565b91506149d182614990565b602082019050919050565b600060208201905081810360008301526149f5816149b9565b9050919050565b6000614a0782613dc8565b9150614a1283613dc8565b9250828201905080821115614a2a57614a296148bf565b5b92915050565b7f4d696e7420656e64656400000000000000000000000000000000000000000000600082015250565b6000614a66600a83614085565b9150614a7182614a30565b602082019050919050565b60006020820190508181036000830152614a9581614a59565b9050919050565b7f4d617820737570706c7920726561636865640000000000000000000000000000600082015250565b6000614ad2601283614085565b9150614add82614a9c565b602082019050919050565b60006020820190508181036000830152614b0181614ac5565b9050919050565b6000604082019050614b1d60008301856142b3565b614b2a60208301846142b3565b9392505050565b6000614b3c82613dc8565b91507fffffffffffffffffffffffffffffffffffffffffffffffffffffffffffffffff8203614b6e57614b6d6148bf565b5b600182019050919050565b60008160001c9050919050565b60008160e81b9050919050565b6000614b9e82614b86565b9050919050565b6000614bb8614bb383614b79565b614b93565b9050919050565b614bc8816142eb565b82525050565b60008160181c9050919050565b6000614bee614be983614bce565b614b93565b9050919050565b60008160301c9050919050565b6000614c15614c1083614bf5565b614b93565b9050919050565b60008160481c9050919050565b6000614c3c614c3783614c1c565b614b93565b9050919050565b60008160601c9050919050565b6000614c63614c5e83614c43565b614b93565b9050919050565b60008160781c9050919050565b600060ff82169050919050565b6000614c97614c9283614c6a565b614c77565b9050919050565b614ca78161437c565b82525050565b60008160801c9050919050565b6000614ccd614cc883614cad565b614c77565b9050919050565b60008160881c9050919050565b600060ff82169050919050565b6000614d01614cfc83614cd4565b614ce1565b9050919050565b614d118161439d565b82525050565b61010082016000808301549050614d2d81614ba5565b614d3a6000860182614bbf565b50614d4481614bdb565b614d516020860182614bbf565b50614d5b81614c02565b614d686040860182614bbf565b50614d7281614c29565b614d7f6060860182614bbf565b50614d8981614c50565b614d966080860182614bbf565b50614da081614c84565b614dad60a0860182614c9e565b50614db781614cba565b614dc460c0860182614c9e565b50614dce81614cee565b614ddb60e0860182614d08565b5050505050565b600061010082019050614df86000830184614d17565b92915050565b6000614e11614e0c846144b7565b61449c565b905082815260208101848484011115614e2d57614e2c614437565b5b614e38848285613e47565b509392505050565b600082601f830112614e5557614e5461415b565b5b8151614e65848260208601614dfe565b91505092915050565b600060208284031215614e8457614e83613dbe565b5b600082015167ffffffffffffffff811115614ea257614ea1613dc3565b5b614eae84828501614e40565b91505092915050565b60008190508160005260206000209050919050565b60006020601f8301049050919050565b600082821b905092915050565b600060088302614f197fffffffffffffffffffffffffffffffffffffffffffffffffffffffffffffffff82614edc565b614f238683614edc565b95508019841693508086168417925050509392505050565b6000819050919050565b6000614f60614f5b614f5684613dc8565b614f3b565b613dc8565b9050919050565b6000819050919050565b614f7a83614f45565b614f8e614f8682614f67565b848454614ee9565b825550505050565b600090565b614fa3614f96565b614fae818484614f71565b505050565b5b81811015614fd257614fc7600082614f9b565b600181019050614fb4565b5050565b601f82111561501757614fe881614eb7565b614ff184614ecc565b81016020851015615000578190505b61501461500c85614ecc565b830182614fb3565b50505b505050565b600082821c905092915050565b600061503a6000198460080261501c565b1980831691505092915050565b60006150538383615029565b9150826002028217905092915050565b61506c82613e2b565b67ffffffffffffffff8111156150855761508461443c565b5b61508f8254614857565b61509a828285614fd6565b600060209050601f8311600181146150cd57600084156150bb578287015190505b6150c58582615047565b86555061512d565b601f1984166150db86614eb7565b60005b82811015615103578489015182556001820191506020850194506020810190506150de565b86831015615120578489015161511c601f891682615029565b8355505b6001600288020188555050505b505050505050565b600060608201905061514a60008301866142b3565b61515760208301856140f1565b61516460408301846142b3565b949350505050565b600081549050919050565b600082825260208201905092915050565b60008190508160005260206000209050919050565b6000819050919050565b60006151ba6151b583614b79565b61519d565b9050919050565b6151ca81613dc8565b82525050565b600082825260208201905092915050565b600081546151ee81614857565b6151f881866151d0565b9450600182166000811461521357600181146152295761525c565b60ff19831686528115156020028601935061525c565b61523285614eb7565b60005b8381101561525457815481890152600182019150602081019050615235565b808801955050505b50505092915050565b600060408301600080840154905061527c816151a7565b61528960008701826151c1565b506001840185830360208701526152a083826151e1565b925050819250505092915050565b60006152ba8383615265565b905092915050565b6000600282019050919050565b60006152da8261516c565b6152e48185615177565b9350836020820285016152f685615188565b8060005b858110156153315784840389528161531285826152ae565b945061531d836152c2565b925060208a019950506001810190506152fa565b50829750879550505050505092915050565b6000602082019050818103600083015261535d81846152cf565b905092915050565b600081905092915050565b6000815461537d81614857565b6153878186615365565b945060018216600081146153a257600181146153b7576153ea565b60ff19831686528115158202860193506153ea565b6153c085614eb7565b60005b838110156153e2578154818901526001820191506020810190506153c3565b838801955050505b50505092915050565b600081905092915050565b7f3c672069643d2264726177696e672d617265612220636c69702d706174683d2260008201527f75726c282363616e7661732d636c6970292220646174612d746f6b656e3d2200602082015250565b600061545a603f836153f3565b9150615465826153fe565b603f82019050919050565b600061547b8261407a565b61548581856153f3565b9350615495818560208601613e47565b80840191505092915050565b7f223e000000000000000000000000000000000000000000000000000000000000600082015250565b60006154d76002836153f3565b91506154e2826154a1565b600282019050919050565b60006154f882613e2b565b6155028185615365565b9350615512818560208601613e47565b80840191505092915050565b7f3c2f673e00000000000000000000000000000000000000000000000000000000600082015250565b60006155546004836153f3565b915061555f8261551e565b600482019050919050565b60006155768288615370565b91506155828287615370565b915061558d8261544d565b91506155998286615470565b91506155a4826154ca565b91506155b082856154ed565b91506155bb82615547565b91506155c78284615370565b91508190509695505050505050565b60008190508160005260206000209050919050565b600081546155f881614857565b6156028186614085565b9450600182166000811461561d576001811461563357615666565b60ff198316865281151560200286019350615666565b61563c856155d6565b60005b8381101561565e5781548189015260018201915060208101905061563f565b808801955050505b50505092915050565b600061018082019050818103600083015261568a8188614096565b905061569960208301876142b3565b81810360408301526156ab81866155eb565b905081810360608301526156bf8185614096565b90506156ce6080830184614d17565b9695505050505050565b60006156f36156ee6156e984613ff6565b614f3b565b613dc8565b9050919050565b615703816156d8565b82525050565b600060408201905061571e60008301856156fa565b61572b60208301846142b3565b9392505050565b7f4e487b7100000000000000000000000000000000000000000000000000000000600052603260045260246000fd5b600080fd5b600080fd5b600080fd5b60008235600160400383360303811261578c5761578b615761565b5b80830191505092915050565b600080fd5b600080fd5b6000604082840312156157b8576157b7615798565b5b6157c2604061449c565b905060006157d284828501613de9565b600083015250602082013567ffffffffffffffff8111156157f6576157f561579d565b5b61580284828501614539565b60208301525092915050565b600061581a36836157a2565b9050919050565b6000813561582e81613dd2565b80915050919050565b60008160001b9050919050565b60007fffffffffffffffffffffffffffffffffffffffffffffffffffffffffffffffff61587084615837565b9350801983169250808416831791505092915050565b61588f82614f45565b6158a261589b82614f67565b8354615844565b8255505050565b600080833560016020038436030381126158c6576158c5615761565b5b80840192508235915067ffffffffffffffff8211156158e8576158e7615766565b5b6020830192506001820236038313156159045761590361576b565b5b509250929050565b600082905092915050565b615921838361590c565b67ffffffffffffffff81111561593a5761593961443c565b5b6159448254614857565b61594f828285614fd6565b6000601f83116001811461597e576000841561596c578287013590505b6159768582615047565b8655506159de565b601f19841661598c86614eb7565b60005b828110156159b45784890135825560018201915060208501945060208101905061598f565b868310156159d157848901356159cd601f891682615029565b8355505b6001600288020188555050505b50505050505050565b6159f2838383615917565b505050565b600081016000830180615a0981615821565b9050615a158184615886565b5050506001810160208301615a2a81856158a9565b615a358183866159e7565b505050505050565b615a4782826159f7565b5050565b6000615a568261439d565b915060ff8203615a6957615a686148bf565b5b600182019050919050565b6000608082019050615a8960008301876140f1565b615a9660208301866140f1565b615aa360408301856142b3565b8181036060830152615ab58184613e82565b905095945050505050565b600081519050615acf81613f09565b92915050565b600060208284031215615aeb57615aea613dbe565b5b6000615af984828501615ac0565b91505092915050565b6000602082019050615b176000830184614317565b92915050565b6000602082019050615b3260008301846143aa565b92915050565b600061ffff82169050919050565b6000615b61615b5c615b5784615b38565b614f3b565b613dc8565b9050919050565b615b7181615b46565b82525050565b6000602082019050615b8c6000830184615b68565b92915050565b6000615b9d82613dc8565b9150615ba883613dc8565b9250828203905081811115615bc057615bbf6148bf565b5b92915050565b6000819050919050565b615be1615bdc82613dc8565b615bc6565b82525050565b60008160601b9050919050565b6000615bff82615be7565b9050919050565b6000615c1182615bf4565b9050919050565b615c29615c2482613fb8565b615c06565b82525050565b6000615c3b8288615bd0565b602082019150615c4b8287615bd0565b602082019150615c5b8286615bd0565b602082019150615c6b8285615bd0565b602082019150615c7b8284615c18565b6014820191508190509695505050505050565b6000615c9982613dc8565b9150615ca483613dc8565b925082615cb457615cb3614930565b5b828206905092915050565b600062ffffff82169050919050565b6000615cd982615cbf565b915062ffffff8203615cee57615ced6148bf565b5b60018201905091905056fea26469706673582212206a116dc786f22b6f0e816cfbf8d993dca08aace9cfb4a3a8bc1b7a41ca5246d664736f6c634300081c0033",
  "linkReferences": {},
  "deployedLinkReferences": {}
}