{
  "_format": "hh-sol-artifact-1",
  "contractName": "ColourMeRenderer",
  "sourceName": "contracts/ColourMeRenderer.sol",
  "abi": [
    {
      "inputs": [
        {
          "internalType": "uint256",
          "name": "points",
          "type": "uint256"
        }
      ],
      "name": "InvalidPoints",
      "type": "error"
    },
    {
      "inputs": [
        {
          "internalType": "uint256",
          "name": "points",
          "type": "uint256"
        }
      ],
      "name": "InvalidPolygon",
      "type": "error"
    },
    {
      "inputs": [
        {
          "internalType": "uint8",
          "name": "shape",
          "type": "uint8"
        }
      ],
      "name": "InvalidShape",
      "type": "error"
    },
    {
      "inputs": [
        {
          "internalType": "uint8",
          "name": "stroke",
          "type": "uint8"
        }
      ],
      "name": "InvalidStroke",
      "type": "error"
    },
    {
      "inputs": [
        {
          "components": [
            {
              "internalType": "bytes3",
              "name": "color0",
              "type": "bytes3"
            },
            {
              "internalType": "bytes3",
              "name": "color1",
              "type": "bytes3"
            },
            {
              "internalType": "bytes3",
              "name": "color2",
              "type": "bytes3"
            },
            {
              "internalType": "bytes3",
              "name": "color3",
              "type": "bytes3"
            },
            {
              "internalType": "bytes3",
              "name": "color4",
              "type": "bytes3"
            },
            {
              "internalType": "enum Path",
              "name": "shape0",
              "type": "uint8"
            },
            {
              "internalType": "enum Path",
              "name": "shape1",
              "type": "uint8"
            },
            {
              "internalType": "uint8",
              "name": "polygon",
              "type": "uint8"
            }
          ],
          "internalType": "struct Trait",
          "name": "_trait",
          "type": "tuple"
        }
      ],
      "name": "getAttributes",
      "outputs": [
        {
          "internalType": "bytes",
          "name": "",
          "type": "bytes"
        }
      ],
      "stateMutability": "pure",
      "type": "function"
    },
    {
      "inputs": [
        {
          "internalType": "string",
          "name": "_name",
          "type": "string"
        },
        {
          "internalType": "uint256",
          "name": "_tokenId",
          "type": "uint256"
        },
        {
          "internalType": "string",
          "name": "_baseURL",
          "type": "string"
        },
        {
          "internalType": "string",
          "name": "_svg",
          "type": "string"
        },
        {
          "components": [
            {
              "internalType": "bytes3",
              "name": "color0",
              "type": "bytes3"
            },
            {
              "internalType": "bytes3",
              "name": "color1",
              "type": "bytes3"
            },
            {
              "internalType": "bytes3",
              "name": "color2",
              "type": "bytes3"
            },
            {
              "internalType": "bytes3",
              "name": "color3",
              "type": "bytes3"
            },
            {
              "internalType": "bytes3",
              "name": "color4",
              "type": "bytes3"
            },
            {
              "internalType": "enum Path",
              "name": "shape0",
              "type": "uint8"
            },
            {
              "internalType": "enum Path",
              "name": "shape1",
              "type": "uint8"
            },
            {
              "internalType": "uint8",
              "name": "polygon",
              "type": "uint8"
            }
          ],
          "internalType": "struct Trait",
          "name": "_trait",
          "type": "tuple"
        }
      ],
      "name": "getURI",
      "outputs": [
        {
          "internalType": "bytes",
          "name": "",
          "type": "bytes"
        }
      ],
      "stateMutability": "pure",
      "type": "function"
    },
    {
      "inputs": [
        {
          "components": [
            {
              "internalType": "uint256",
              "name": "base",
              "type": "uint256"
            },
            {
              "internalType": "bytes",
              "name": "additionalPoints",
              "type": "bytes"
            }
          ],
          "internalType": "struct Object[]",
          "name": "_objects",
          "type": "tuple[]"
        }
      ],
      "name": "renderObjects",
      "outputs": [
        {
          "internalType": "bytes",
          "name": "paths",
          "type": "bytes"
        }
      ],
      "stateMutability": "view",
      "type": "function"
    },
    {
      "inputs": [
        {
          "components": [
            {
              "internalType": "enum Path",
              "name": "shape",
              "type": "uint8"
            },
            {
              "internalType": "bytes3",
              "name": "color",
              "type": "bytes3"
            },
            {
              "internalType": "uint8",
              "name": "stroke",
              "type": "uint8"
            },
            {
              "internalType": "uint16",
              "name": "pointsLength",
              "type": "uint16"
            }
          ],
          "internalType": "struct BaseObject",
          "name": "_object",
          "type": "tuple"
        },
        {
          "components": [
            {
              "internalType": "int16",
              "name": "x",
              "type": "int16"
            },
            {
              "internalType": "int16",
              "name": "y",
              "type": "int16"
            }
          ],
          "internalType": "struct Point[]",
          "name": "_points",
          "type": "tuple[]"
        }
      ],
      "name": "renderPath",
      "outputs": [
        {
          "internalType": "bytes",
          "name": "path",
          "type": "bytes"
        }
      ],
      "stateMutability": "view",
      "type": "function"
    },
    {
      "inputs": [
        {
          "internalType": "uint8",
          "name": "_polygon",
          "type": "uint8"
        }
      ],
      "name": "renderPolygon",
      "outputs": [
        {
          "internalType": "bytes",
          "name": "",
          "type": "bytes"
        }
      ],
      "stateMutability": "pure",
      "type": "function"
    },
    {
      "inputs": [
        {
          "internalType": "enum Path",
          "name": "_shape",
          "type": "uint8"
        }
      ],
      "name": "renderShapeTool",
      "outputs": [
        {
          "internalType": "bytes",
          "name": "",
          "type": "bytes"
        }
      ],
      "stateMutability": "pure",
      "type": "function"
    },
    {
      "inputs": [
        {
          "components": [
            {
              "internalType": "bytes3",
              "name": "color0",
              "type": "bytes3"
            },
            {
              "internalType": "bytes3",
              "name": "color1",
              "type": "bytes3"
            },
            {
              "internalType": "bytes3",
              "name": "color2",
              "type": "bytes3"
            },
            {
              "internalType": "bytes3",
              "name": "color3",
              "type": "bytes3"
            },
            {
              "internalType": "bytes3",
              "name": "color4",
              "type": "bytes3"
            },
            {
              "internalType": "enum Path",
              "name": "shape0",
              "type": "uint8"
            },
            {
              "internalType": "enum Path",
              "name": "shape1",
              "type": "uint8"
            },
            {
              "internalType": "uint8",
              "name": "polygon",
              "type": "uint8"
            }
          ],
          "internalType": "struct Trait",
          "name": "_traits",
          "type": "tuple"
        }
      ],
      "name": "renderTrait",
      "outputs": [
        {
          "internalType": "bytes",
          "name": "",
          "type": "bytes"
        }
      ],
      "stateMutability": "pure",
      "type": "function"
    }
  ],
  "bytecode": "0x6080604052348015600f57600080fd5b506153368061001f6000396000f3fe608060405234801561001057600080fd5b506004361061007d5760003560e01c8063bce883ae1161005b578063bce883ae14610112578063c18ac46414610142578063cc719f8f14610172578063f15c370f146101a25761007d565b8063062c06f914610082578063240c6a77146100b25780637889b615146100e2575b600080fd5b61009c60048036038101906100979190612c97565b6101d2565b6040516100a99190612d72565b60405180910390f35b6100cc60048036038101906100c79190612f49565b61071d565b6040516100d99190612d72565b60405180910390f35b6100fc60048036038101906100f79190613207565b610774565b6040516101099190612d72565b60405180910390f35b61012c60048036038101906101279190613250565b610977565b6040516101399190612d72565b60405180910390f35b61015c6004803603810190610157919061327e565b610a0e565b6040516101699190612d72565b60405180910390f35b61018c600480360381019061018791906132ab565b610c78565b6040516101999190612d72565b60405180910390f35b6101bc60048036038101906101b79190613250565b610de8565b6040516101c99190612d72565b60405180910390f35b6060600060058111156101e8576101e76132d8565b5b836000015160058111156101ff576101fe6132d8565b5b036102e7576102118360200151610e7f565b61023c8360008151811061022857610227613307565b5b60200260200101516000015160010b611021565b6102678460008151811061025357610252613307565b5b60200260200101516020015160010b611021565b6102928560018151811061027e5761027d613307565b5b60200260200101516000015160010b611021565b6102bd866001815181106102a9576102a8613307565b5b60200260200101516020015160010b611021565b6040516020016102d1959493929190613581565b6040516020818303038152906040529050610717565b600260058111156102fb576102fa6132d8565b5b83600001516005811115610312576103116132d8565b5b036103fa576103248360200151610e7f565b61034f8360008151811061033b5761033a613307565b5b60200260200101516000015160010b611021565b61037a8460008151811061036657610365613307565b5b60200260200101516020015160010b611021565b6103a58560018151811061039157610390613307565b5b60200260200101516000015160010b611021565b6103d0866001815181106103bc576103bb613307565b5b60200260200101516020015160010b611021565b6040516020016103e495949392919061378a565b6040516020818303038152906040529050610716565b6001600581111561040e5761040d6132d8565b5b83600001516005811115610425576104246132d8565b5b0361051e576104378360200151610e7f565b610447846040015160ff166110af565b6104728460008151811061045e5761045d613307565b5b60200260200101516000015160010b611021565b61049d8560008151811061048957610488613307565b5b60200260200101516020015160010b611021565b6104c8866001815181106104b4576104b3613307565b5b60200260200101516000015160010b611021565b6104f3876001815181106104df576104de613307565b5b60200260200101516020015160010b611021565b604051602001610508969594939291906139df565b6040516020818303038152906040529050610715565b60036005811115610532576105316132d8565b5b83600001516005811115610549576105486132d8565b5b148061057d575060046005811115610564576105636132d8565b5b8360000151600581111561057b5761057a6132d8565b5b145b1561063c57600061058d8361117d565b9050600360058111156105a3576105a26132d8565b5b846000015160058111156105ba576105b96132d8565b5b03610605576105cc8460200151610e7f565b6105dc856040015160ff166110af565b826040516020016105ef93929190613b1c565b6040516020818303038152906040529150610636565b6106128460200151610e7f565b81604051602001610624929190613bc5565b60405160208183030381529060405291505b50610714565b60058081111561064f5761064e6132d8565b5b83600001516005811115610666576106656132d8565b5b0361071357600061067683611676565b90506106858460200151610e7f565b610695856040015160ff166110af565b6106c0856000815181106106ac576106ab613307565b5b60200260200101516000015160010b611021565b6106eb866000815181106106d7576106d6613307565b5b60200260200101516020015160010b611021565b84604051602001610700959493929190613d3a565b6040516020818303038152906040529150505b5b5b5b5b92915050565b606085610729866110af565b85610733886110af565b61073c87611c45565b61074587610de8565b60405160200161075a96959493929190614100565b604051602081830303815290604052905095945050505050565b606060008251036107a45760405160200161078e906141ec565b6040516020818303038152906040529050610972565b600080835167ffffffffffffffff8111156107c2576107c1612959565b5b6040519080825280602002602001820160405280156107f557816020015b60608152602001906001900390816107e05790505b50905060005b84518110156108b657600061082d86838151811061081c5761081b613307565b5b602002602001015160000151611c72565b9050600061085487848151811061084757610846613307565b5b6020026020010151611d27565b905061086082826101d2565b84848151811061087357610872613307565b5b602002602001018190525083838151811061089157610890613307565b5b602002602001015151856108a59190614230565b9450505080806001019150506107fb565b5060008267ffffffffffffffff8111156108d3576108d2612959565b5b6040519080825280601f01601f1916602001820160405280156109055781602001600182028036833780820191505090505b5090506000805b835181101561096957600084828151811061092a57610929613307565b5b602002602001015190508051602082018460208701018281848460045afa505050508051836109599190614230565b925050808060010191505061090c565b50819450505050505b919050565b60606109868260000151610e7f565b6109938360200151610e7f565b6109a08460400151610e7f565b6109ad8560600151610e7f565b6109ba8660800151610e7f565b6109c78760a00151610a0e565b6109d48860c00151610a0e565b6109e18960e00151610c78565b6040516020016109f8989796959493929190614640565b6040516020818303038152906040529050919050565b606060006005811115610a2457610a236132d8565b5b826005811115610a3757610a366132d8565b5b03610a955760405180608001604052806045815260200161523c6045913960405180606001604052806040815260200161528160409139604051602001610a7f929190614787565b6040516020818303038152906040529050610c73565b60026005811115610aa957610aa86132d8565b5b826005811115610abc57610abb6132d8565b5b03610b1a5760405180608001604052806045815260200161523c6045913960405180606001604052806040815260200161528160409139604051602001610b04929190614828565b6040516020818303038152906040529050610c73565b60016005811115610b2e57610b2d6132d8565b5b826005811115610b4157610b406132d8565b5b03610b9f5760405180608001604052806045815260200161523c6045913960405180606001604052806040815260200161528160409139604051602001610b899291906148c9565b6040516020818303038152906040529050610c73565b60036005811115610bb357610bb26132d8565b5b826005811115610bc657610bc56132d8565b5b03610c245760405180608001604052806045815260200161523c6045913960405180606001604052806040815260200161528160409139604051602001610c0e92919061496a565b6040516020818303038152906040529050610c73565b816005811115610c3757610c366132d8565b5b6040517fd353599c000000000000000000000000000000000000000000000000000000008152600401610c6a91906149a8565b60405180910390fd5b919050565b606060038260ff1603610cde5760405180608001604052806045815260200161523c6045913960405180606001604052806040815260200161528160409139604051602001610cc8929190614a35565b6040516020818303038152906040529050610de3565b60058260ff1603610d425760405180608001604052806045815260200161523c6045913960405180606001604052806040815260200161528160409139604051602001610d2c929190614ad6565b6040516020818303038152906040529050610de3565b60068260ff1603610da65760405180608001604052806045815260200161523c6045913960405180606001604052806040815260200161528160409139604051602001610d90929190614b77565b6040516020818303038152906040529050610de3565b816040517fc4b8d4e3000000000000000000000000000000000000000000000000000000008152600401610dda9190614be1565b60405180910390fd5b919050565b6060610df78260000151610e7f565b610e048360200151610e7f565b610e118460400151610e7f565b610e1e8560600151610e7f565b610e2b8660800151610e7f565b610e388760a00151611fd5565b610e458860c00151611fd5565b610e528960e001516121cf565b604051602001610e69989796959493929190614fd8565b6040516020818303038152906040529050919050565b606060007f303132333435363738396162636465660000000000000000000000000000000090506000600667ffffffffffffffff811115610ec357610ec2612959565b5b6040519080825280601f01601f191660200182016040528015610ef55781602001600182028036833780820191505090505b50905060005b6003811015611016576000858260038110610f1957610f18613307565b5b1a60f81b60f81c90508360048260ff16901c60ff1660108110610f3f57610f3e613307565b5b1a60f81b83600284610f5191906150ad565b81518110610f6257610f61613307565b5b60200101907effffffffffffffffffffffffffffffffffffffffffffffffffffffffffffff1916908160001a90535083600f821660ff1660108110610faa57610fa9613307565b5b1a60f81b836001600285610fbe91906150ad565b610fc89190614230565b81518110610fd957610fd8613307565b5b60200101907effffffffffffffffffffffffffffffffffffffffffffffffffffffffffffff1916908160001a905350508080600101915050610efb565b508092505050919050565b6060600082126110405760405180602001604052806000815250611077565b6040518060400160405280600181526020017f2d000000000000000000000000000000000000000000000000000000000000008152505b611088611083846122eb565b6110af565b6040516020016110999291906150ef565b6040516020818303038152906040529050919050565b6060600060016110be84612302565b01905060008167ffffffffffffffff8111156110dd576110dc612959565b5b6040519080825280601f01601f19166020018201604052801561110f5781602001600182028036833780820191505090505b509050600082602083010190505b600115611172578080600190039150507f3031323334353637383961626364656600000000000000000000000000000000600a86061a8153600a858161116657611165615113565b5b0494506000850361111d575b819350505050919050565b606060008251036111dd57600067ffffffffffffffff8111156111a3576111a2612959565b5b6040519080825280601f01601f1916602001820160405280156111d55781602001600182028036833780820191505090505b509050611671565b600080835167ffffffffffffffff8111156111fb576111fa612959565b5b60405190808252806020026020018201604052801561122e57816020015b60608152602001906001900390816112195790505b50905060005b84518110156115b557600061126986838151811061125557611254613307565b5b60200260200101516000015160010b611021565b9050600061129787848151811061128357611282613307565b5b60200260200101516020015160010b611021565b905060018151600184516112ab9190614230565b6112b59190614230565b6112bf9190614230565b67ffffffffffffffff8111156112d8576112d7612959565b5b6040519080825280601f01601f19166020018201604052801561130a5781602001600182028036833780820191505090505b5084848151811061131e5761131d613307565b5b602002602001018190525060005b82518110156113bc5782818151811061134857611347613307565b5b602001015160f81c60f81b85858151811061136657611365613307565b5b602002602001015182815181106113805761137f613307565b5b60200101907effffffffffffffffffffffffffffffffffffffffffffffffffffffffffffff1916908160001a905350808060010191505061132c565b507f2c000000000000000000000000000000000000000000000000000000000000008484815181106113f1576113f0613307565b5b602002602001015183518151811061140c5761140b613307565b5b60200101907effffffffffffffffffffffffffffffffffffffffffffffffffffffffffffff1916908160001a90535060005b81518110156114e65781818151811061145a57611459613307565b5b602001015160f81c60f81b85858151811061147857611477613307565b5b6020026020010151826001865161148f9190614230565b6114999190614230565b815181106114aa576114a9613307565b5b60200101907effffffffffffffffffffffffffffffffffffffffffffffffffffffffffffff1916908160001a905350808060010191505061143e565b507f200000000000000000000000000000000000000000000000000000000000000084848151811061151b5761151a613307565b5b60200260200101518251600185516115339190614230565b61153d9190614230565b8151811061154e5761154d613307565b5b60200101907effffffffffffffffffffffffffffffffffffffffffffffffffffffffffffff1916908160001a9053508383815181106115905761158f613307565b5b602002602001015151856115a49190614230565b945050508080600101915050611234565b5060008267ffffffffffffffff8111156115d2576115d1612959565b5b6040519080825280601f01601f1916602001820160405280156116045781602001600182028036833780820191505090505b5090506000805b835181101561166857600084828151811061162957611628613307565b5b602002602001015190508051602082018460208701018281848460045afa505050508051836116589190614230565b925050808060010191505061160b565b50819450505050505b919050565b606060018251116116d657600067ffffffffffffffff81111561169c5761169b612959565b5b6040519080825280601f01601f1916602001820160405280156116ce5781602001600182028036833780820191505090505b509050611c40565b600080600184516116e79190615142565b67ffffffffffffffff811115611700576116ff612959565b5b60405190808252806020026020018201604052801561173357816020015b606081526020019060019003908161171e5790505b5090506000600190505b8451811015611b8457600061177286838151811061175e5761175d613307565b5b60200260200101516000015160010b611021565b905060006117a087848151811061178c5761178b613307565b5b60200260200101516020015160010b611021565b90508051825160036117b29190614230565b6117bc9190614230565b67ffffffffffffffff8111156117d5576117d4612959565b5b6040519080825280601f01601f1916602001820160405280156118075781602001600182028036833780820191505090505b50846001856118169190615142565b8151811061182757611826613307565b5b60200260200101819052507f2000000000000000000000000000000000000000000000000000000000000000846001856118619190615142565b8151811061187257611871613307565b5b602002602001015160008151811061188d5761188c613307565b5b60200101907effffffffffffffffffffffffffffffffffffffffffffffffffffffffffffff1916908160001a9053507f4c00000000000000000000000000000000000000000000000000000000000000846001856118eb9190615142565b815181106118fc576118fb613307565b5b602002602001015160018151811061191757611916613307565b5b60200101907effffffffffffffffffffffffffffffffffffffffffffffffffffffffffffff1916908160001a90535060005b82518110156119f15782818151811061196557611964613307565b5b602001015160f81c60f81b8560018661197e9190615142565b8151811061198f5761198e613307565b5b60200260200101518260026119a49190614230565b815181106119b5576119b4613307565b5b60200101907effffffffffffffffffffffffffffffffffffffffffffffffffffffffffffff1916908160001a9053508080600101915050611949565b507f200000000000000000000000000000000000000000000000000000000000000084600185611a219190615142565b81518110611a3257611a31613307565b5b602002602001015183516002611a489190614230565b81518110611a5957611a58613307565b5b60200101907effffffffffffffffffffffffffffffffffffffffffffffffffffffffffffff1916908160001a90535060005b8151811015611b3f57818181518110611aa757611aa6613307565b5b602001015160f81c60f81b85600186611ac09190615142565b81518110611ad157611ad0613307565b5b60200260200101518285516003611ae89190614230565b611af29190614230565b81518110611b0357611b02613307565b5b60200101907effffffffffffffffffffffffffffffffffffffffffffffffffffffffffffff1916908160001a9053508080600101915050611a8b565b5083600184611b4e9190615142565b81518110611b5f57611b5e613307565b5b60200260200101515185611b739190614230565b94505050808060010191505061173d565b5060008267ffffffffffffffff811115611ba157611ba0612959565b5b6040519080825280601f01601f191660200182016040528015611bd35781602001600182028036833780820191505090505b5090506000805b8351811015611c37576000848281518110611bf857611bf7613307565b5b602002602001015190508051602082018460208701018281848460045afa50505050805183611c279190614230565b9250508080600101915050611bda565b50819450505050505b919050565b6060611c6b826040518060600160405280604081526020016152c1604091396001612455565b9050919050565b611c7a6128ae565b6000611c85836125e9565b90506000611c9284612659565b90506000611c9f8561266a565b90506000611cac86612678565b9050611cb88483612686565b611cc28482612760565b6040518060800160405280856005811115611ce057611cdf6132d8565b5b8152602001847cffffffffffffffffffffffffffffffffffffffffffffffffffffffffff191681526020018360ff1681526020018261ffff16815250945050505050919050565b60606000611d388360000151612678565b905060008161ffff1667ffffffffffffffff811115611d5a57611d59612959565b5b604051908082528060200260200182016040528015611d9357816020015b611d8061290f565b815260200190600190039081611d785790505b50905060005b600681108015611dac57508261ffff1681105b15611e41576000602082611dc091906150ad565b6033611dcc9190614230565b90506000818760000151901c90506000601083611de99190614230565b8860000151901c905060405180604001604052808360010b81526020018260010b815250858581518110611e2057611e1f613307565b5b60200260200101819052505050508080611e3990615176565b915050611d99565b5060005b846020015151600382611e589190614230565b108015611e8057508261ffff16600482611e7291906151be565b6006611e7e9190614230565b105b15611fca5760008560200151600183611e999190614230565b81518110611eaa57611ea9613307565b5b602001015160f81c60f81b60f81c60ff16600887602001518481518110611ed457611ed3613307565b5b602001015160f81c60f81b60f81c60ff1661ffff16901b17905060008660200151600384611f029190614230565b81518110611f1357611f12613307565b5b602001015160f81c60f81b60f81c60ff1660088860200151600286611f389190614230565b81518110611f4957611f48613307565b5b602001015160f81c60f81b60f81c60ff1661ffff16901b17905060405180604001604052808360010b81526020018260010b81525084600485611f8c91906151be565b6006611f989190614230565b81518110611fa957611fa8613307565b5b60200260200101819052505050600481611fc39190614230565b9050611e45565b508092505050919050565b606060006005811115611feb57611fea6132d8565b5b826005811115611ffe57611ffd6132d8565b5b03612040576040518060400160405280600981526020017f52656374616e676c65000000000000000000000000000000000000000000000081525090506121ca565b60026005811115612054576120536132d8565b5b826005811115612067576120666132d8565b5b036120a9576040518060400160405280600781526020017f456c6c697073650000000000000000000000000000000000000000000000000081525090506121ca565b600160058111156120bd576120bc6132d8565b5b8260058111156120d0576120cf6132d8565b5b03612112576040518060400160405280600481526020017f4c696e650000000000000000000000000000000000000000000000000000000081525090506121ca565b60036005811115612126576121256132d8565b5b826005811115612139576121386132d8565b5b0361217b576040518060400160405280600881526020017f506f6c796c696e6500000000000000000000000000000000000000000000000081525090506121ca565b81600581111561218e5761218d6132d8565b5b6040517fd353599c0000000000000000000000000000000000000000000000000000000081526004016121c191906149a8565b60405180910390fd5b919050565b606060038260ff1603612219576040518060400160405280600881526020017f547269616e676c6500000000000000000000000000000000000000000000000081525090506122e6565b60058260ff1603612261576040518060400160405280600881526020017f50656e7461676f6e00000000000000000000000000000000000000000000000081525090506122e6565b60068260ff16036122a9576040518060400160405280600781526020017f48657861676f6e0000000000000000000000000000000000000000000000000081525090506122e6565b816040517fc4b8d4e30000000000000000000000000000000000000000000000000000000081526004016122dd9190614be1565b60405180910390fd5b919050565b60008060ff83901d90508081840118915050919050565b600080600090507a184f03e93ff9f4daa797ed6e38ed64bf6a1f0100000000000000008310612360577a184f03e93ff9f4daa797ed6e38ed64bf6a1f010000000000000000838161235657612355615113565b5b0492506040810190505b6d04ee2d6d415b85acef8100000000831061239d576d04ee2d6d415b85acef8100000000838161239357612392615113565b5b0492506020810190505b662386f26fc1000083106123cc57662386f26fc1000083816123c2576123c1615113565b5b0492506010810190505b6305f5e10083106123f5576305f5e10083816123eb576123ea615113565b5b0492506008810190505b612710831061241a5761271083816124105761240f615113565b5b0492506004810190505b6064831061243d576064838161243357612432615113565b5b0492506002810190505b600a831061244c576001810190505b80915050919050565b60606000845103612477576040518060200160405280600081525090506125e2565b6000826124a957600360028651600461249091906150ad565b61249a9190614230565b6124a491906151be565b6124d0565b6003600286516124b99190614230565b6124c391906151be565b60046124cf91906150ad565b5b905060008167ffffffffffffffff8111156124ee576124ed612959565b5b6040519080825280601f01601f1916602001820160405280156125205781602001600182028036833780820191505090505b50905060018501602082018788518901602081018051600082525b82841015612596576003840193508351603f8160121c168701518653600186019550603f81600c1c168701518653600186019550603f8160061c168701518653600186019550603f811687015186536001860195505061253b565b80825289156125d65760038c5106600181146125b957600281146125cc576125d4565b603d6001870353603d60028703536125d4565b603d60018703535b505b50505050505080925050505b9392505050565b60008060078316905060058160ff16111561263b57806040517fd353599c00000000000000000000000000000000000000000000000000000000815260040161263291906149a8565b60405180910390fd5b8060ff166005811115612651576126506132d8565b5b915050919050565b6000600382901c60e81b9050919050565b6000601b82901c9050919050565b6000602382901c9050919050565b600580811115612699576126986132d8565b5b8260058111156126ac576126ab6132d8565b5b14806126dc5750600160058111156126c7576126c66132d8565b5b8260058111156126da576126d96132d8565b5b145b8061270b5750600360058111156126f6576126f56132d8565b5b826005811115612709576127086132d8565b5b145b801561271a575060008160ff16145b1561275c57806040517fdd76e35400000000000000000000000000000000000000000000000000000000815260040161275391906149a8565b60405180910390fd5b5050565b60028161ffff161080612806575060006005811115612782576127816132d8565b5b826005811115612795576127946132d8565b5b14806127c55750600260058111156127b0576127af6132d8565b5b8260058111156127c3576127c26132d8565b5b145b806127f45750600160058111156127df576127de6132d8565b5b8260058111156127f2576127f16132d8565b5b145b8015612805575060028161ffff1614155b5b806128685750600460058111156128205761281f6132d8565b5b826005811115612833576128326132d8565b5b148015612845575060038161ffff1614155b8015612856575060058161ffff1614155b8015612867575060068161ffff1614155b5b156128aa57806040517fd3c6c3ae0000000000000000000000000000000000000000000000000000000081526004016128a19190615220565b60405180910390fd5b5050565b6040518060800160405280600060058111156128cd576128cc6132d8565b5b815260200160007cffffffffffffffffffffffffffffffffffffffffffffffffffffffffff19168152602001600060ff168152602001600061ffff1681525090565b6040518060400160405280600060010b8152602001600060010b81525090565b6000604051905090565b600080fd5b600080fd5b600080fd5b6000601f19601f8301169050919050565b7f4e487b7100000000000000000000000000000000000000000000000000000000600052604160045260246000fd5b61299182612948565b810181811067ffffffffffffffff821117156129b0576129af612959565b5b80604052505050565b60006129c361292f565b90506129cf8282612988565b919050565b600080fd5b600681106129e657600080fd5b50565b6000813590506129f8816129d9565b92915050565b60007fffffff000000000000000000000000000000000000000000000000000000000082169050919050565b612a33816129fe565b8114612a3e57600080fd5b50565b600081359050612a5081612a2a565b92915050565b600060ff82169050919050565b612a6c81612a56565b8114612a7757600080fd5b50565b600081359050612a8981612a63565b92915050565b600061ffff82169050919050565b612aa681612a8f565b8114612ab157600080fd5b50565b600081359050612ac381612a9d565b92915050565b600060808284031215612adf57612ade612943565b5b612ae960806129b9565b90506000612af9848285016129e9565b6000830152506020612b0d84828501612a41565b6020830152506040612b2184828501612a7a565b6040830152506060612b3584828501612ab4565b60608301525092915050565b600080fd5b600067ffffffffffffffff821115612b6157612b60612959565b5b602082029050602081019050919050565b600080fd5b60008160010b9050919050565b612b8d81612b77565b8114612b9857600080fd5b50565b600081359050612baa81612b84565b92915050565b600060408284031215612bc657612bc5612943565b5b612bd060406129b9565b90506000612be084828501612b9b565b6000830152506020612bf484828501612b9b565b60208301525092915050565b6000612c13612c0e84612b46565b6129b9565b90508083825260208201905060408402830185811115612c3657612c35612b72565b5b835b81811015612c5f5780612c4b8882612bb0565b845260208401935050604081019050612c38565b5050509392505050565b600082601f830112612c7e57612c7d612b41565b5b8135612c8e848260208601612c00565b91505092915050565b60008060a08385031215612cae57612cad612939565b5b6000612cbc85828601612ac9565b925050608083013567ffffffffffffffff811115612cdd57612cdc61293e565b5b612ce985828601612c69565b9150509250929050565b600081519050919050565b600082825260208201905092915050565b60005b83811015612d2d578082015181840152602081019050612d12565b60008484015250505050565b6000612d4482612cf3565b612d4e8185612cfe565b9350612d5e818560208601612d0f565b612d6781612948565b840191505092915050565b60006020820190508181036000830152612d8c8184612d39565b905092915050565b600080fd5b600067ffffffffffffffff821115612db457612db3612959565b5b612dbd82612948565b9050602081019050919050565b82818337600083830152505050565b6000612dec612de784612d99565b6129b9565b905082815260208101848484011115612e0857612e07612d94565b5b612e13848285612dca565b509392505050565b600082601f830112612e3057612e2f612b41565b5b8135612e40848260208601612dd9565b91505092915050565b6000819050919050565b612e5c81612e49565b8114612e6757600080fd5b50565b600081359050612e7981612e53565b92915050565b60006101008284031215612e9657612e95612943565b5b612ea16101006129b9565b90506000612eb184828501612a41565b6000830152506020612ec584828501612a41565b6020830152506040612ed984828501612a41565b6040830152506060612eed84828501612a41565b6060830152506080612f0184828501612a41565b60808301525060a0612f15848285016129e9565b60a08301525060c0612f29848285016129e9565b60c08301525060e0612f3d84828501612a7a565b60e08301525092915050565b60008060008060006101808688031215612f6657612f65612939565b5b600086013567ffffffffffffffff811115612f8457612f8361293e565b5b612f9088828901612e1b565b9550506020612fa188828901612e6a565b945050604086013567ffffffffffffffff811115612fc257612fc161293e565b5b612fce88828901612e1b565b935050606086013567ffffffffffffffff811115612fef57612fee61293e565b5b612ffb88828901612e1b565b925050608061300c88828901612e7f565b9150509295509295909350565b600067ffffffffffffffff82111561303457613033612959565b5b602082029050602081019050919050565b600067ffffffffffffffff8211156130605761305f612959565b5b61306982612948565b9050602081019050919050565b600061308961308484613045565b6129b9565b9050828152602081018484840111156130a5576130a4612d94565b5b6130b0848285612dca565b509392505050565b600082601f8301126130cd576130cc612b41565b5b81356130dd848260208601613076565b91505092915050565b6000604082840312156130fc576130fb612943565b5b61310660406129b9565b9050600061311684828501612e6a565b600083015250602082013567ffffffffffffffff81111561313a576131396129d4565b5b613146848285016130b8565b60208301525092915050565b600061316561316084613019565b6129b9565b9050808382526020820190506020840283018581111561318857613187612b72565b5b835b818110156131cf57803567ffffffffffffffff8111156131ad576131ac612b41565b5b8086016131ba89826130e6565b8552602085019450505060208101905061318a565b5050509392505050565b600082601f8301126131ee576131ed612b41565b5b81356131fe848260208601613152565b91505092915050565b60006020828403121561321d5761321c612939565b5b600082013567ffffffffffffffff81111561323b5761323a61293e565b5b613247848285016131d9565b91505092915050565b6000610100828403121561326757613266612939565b5b600061327584828501612e7f565b91505092915050565b60006020828403121561329457613293612939565b5b60006132a2848285016129e9565b91505092915050565b6000602082840312156132c1576132c0612939565b5b60006132cf84828501612a7a565b91505092915050565b7f4e487b7100000000000000000000000000000000000000000000000000000000600052602160045260246000fd5b7f4e487b7100000000000000000000000000000000000000000000000000000000600052603260045260246000fd5b600081905092915050565b7f3c726563742066696c6c3d222300000000000000000000000000000000000000600082015250565b6000613377600d83613336565b915061338282613341565b600d82019050919050565b600081905092915050565b60006133a382612cf3565b6133ad818561338d565b93506133bd818560208601612d0f565b80840191505092915050565b7f2220783d22000000000000000000000000000000000000000000000000000000600082015250565b60006133ff600583613336565b915061340a826133c9565b600582019050919050565b600081519050919050565b600061342b82613415565b6134358185613336565b9350613445818560208601612d0f565b80840191505092915050565b7f2220793d22000000000000000000000000000000000000000000000000000000600082015250565b6000613487600583613336565b915061349282613451565b600582019050919050565b7f222077696474683d220000000000000000000000000000000000000000000000600082015250565b60006134d3600983613336565b91506134de8261349d565b600982019050919050565b7f22206865696768743d2200000000000000000000000000000000000000000000600082015250565b600061351f600a83613336565b915061352a826134e9565b600a82019050919050565b7f222f3e0000000000000000000000000000000000000000000000000000000000600082015250565b600061356b600383613336565b915061357682613535565b600382019050919050565b600061358c8261336a565b91506135988288613398565b91506135a3826133f2565b91506135af8287613420565b91506135ba8261347a565b91506135c68286613420565b91506135d1826134c6565b91506135dd8285613420565b91506135e882613512565b91506135f48284613420565b91506135ff8261355e565b91508190509695505050505050565b7f3c656c6c697073652066696c6c3d222300000000000000000000000000000000600082015250565b6000613644601083613336565b915061364f8261360e565b601082019050919050565b7f222063783d220000000000000000000000000000000000000000000000000000600082015250565b6000613690600683613336565b915061369b8261365a565b600682019050919050565b7f222063793d220000000000000000000000000000000000000000000000000000600082015250565b60006136dc600683613336565b91506136e7826136a6565b600682019050919050565b7f222072783d220000000000000000000000000000000000000000000000000000600082015250565b6000613728600683613336565b9150613733826136f2565b600682019050919050565b7f222072793d220000000000000000000000000000000000000000000000000000600082015250565b6000613774600683613336565b915061377f8261373e565b600682019050919050565b600061379582613637565b91506137a18288613398565b91506137ac82613683565b91506137b88287613420565b91506137c3826136cf565b91506137cf8286613420565b91506137da8261371b565b91506137e68285613420565b91506137f182613767565b91506137fd8284613420565b91506138088261355e565b91508190509695505050505050565b7f3c6c696e652066696c6c3d226e6f6e6522207374726f6b653d22230000000000600082015250565b600061384d601b83613336565b915061385882613817565b601b82019050919050565b7f22207374726f6b652d77696474683d2200000000000000000000000000000000600082015250565b6000613899601083613336565b91506138a482613863565b601082019050919050565b7f222078313d220000000000000000000000000000000000000000000000000000600082015250565b60006138e5600683613336565b91506138f0826138af565b600682019050919050565b7f222079313d220000000000000000000000000000000000000000000000000000600082015250565b6000613931600683613336565b915061393c826138fb565b600682019050919050565b7f222078323d220000000000000000000000000000000000000000000000000000600082015250565b600061397d600683613336565b915061398882613947565b600682019050919050565b7f222079323d220000000000000000000000000000000000000000000000000000600082015250565b60006139c9600683613336565b91506139d482613993565b600682019050919050565b60006139ea82613840565b91506139f68289613398565b9150613a018261388c565b9150613a0d8288613420565b9150613a18826138d8565b9150613a248287613420565b9150613a2f82613924565b9150613a3b8286613420565b9150613a4682613970565b9150613a528285613420565b9150613a5d826139bc565b9150613a698284613420565b9150613a748261355e565b9150819050979650505050505050565b7f3c706f6c796c696e652066696c6c3d226e6f6e6522207374726f6b653d222300600082015250565b6000613aba601f83613336565b9150613ac582613a84565b601f82019050919050565b7f2220706f696e74733d2200000000000000000000000000000000000000000000600082015250565b6000613b06600a83613336565b9150613b1182613ad0565b600a82019050919050565b6000613b2782613aad565b9150613b338286613398565b9150613b3e8261388c565b9150613b4a8285613420565b9150613b5582613af9565b9150613b618284613398565b9150613b6c8261355e565b9150819050949350505050565b7f3c706f6c79676f6e2066696c6c3d222300000000000000000000000000000000600082015250565b6000613baf601083613336565b9150613bba82613b79565b601082019050919050565b6000613bd082613ba2565b9150613bdc8285613398565b9150613be782613af9565b9150613bf38284613398565b9150613bfe8261355e565b91508190509392505050565b7f3c70617468207374726f6b652d6c696e656361703d22726f756e64222073747260008201527f6f6b652d6c696e656a6f696e3d22726f756e64222066696c6c3d226e6f6e652260208201527f207374726f6b653d222300000000000000000000000000000000000000000000604082015250565b6000613c8c604a83613336565b9150613c9782613c0a565b604a82019050919050565b7f2220643d224d0000000000000000000000000000000000000000000000000000600082015250565b6000613cd8600683613336565b9150613ce382613ca2565b600682019050919050565b7f2000000000000000000000000000000000000000000000000000000000000000600082015250565b6000613d24600183613336565b9150613d2f82613cee565b600182019050919050565b6000613d4582613c7f565b9150613d518288613398565b9150613d5c8261388c565b9150613d688287613420565b9150613d7382613ccb565b9150613d7f8286613420565b9150613d8a82613d17565b9150613d968285613420565b9150613da28284613398565b9150613dad8261355e565b91508190509695505050505050565b7f7b226e616d65223a220000000000000000000000000000000000000000000000600082015250565b6000613df2600983613336565b9150613dfd82613dbc565b600982019050919050565b7f2023000000000000000000000000000000000000000000000000000000000000600082015250565b6000613e3e600283613336565b9150613e4982613e08565b600282019050919050565b7f222c000000000000000000000000000000000000000000000000000000000000600082015250565b6000613e8a600283613336565b9150613e9582613e54565b600282019050919050565b7f226465736372697074696f6e223a22436f6c6f757220796f7572204e4654207960008201527f6f7572207761792e2050726f76696e6720796f752063616e206372656174652060208201527f616e20535647207573696e6720616e20535647206f6e2074686520626c6f636b60408201527f636861696e222c00000000000000000000000000000000000000000000000000606082015250565b6000613f48606783613336565b9150613f5382613ea0565b606782019050919050565b7f2265787465726e616c5f75726c223a2200000000000000000000000000000000600082015250565b6000613f94601083613336565b9150613f9f82613f5e565b601082019050919050565b7f2300000000000000000000000000000000000000000000000000000000000000600082015250565b6000613fe0600183613336565b9150613feb82613faa565b600182019050919050565b7f22696d6167655f64617461223a22646174613a696d6167652f7376672b786d6c60008201527f3b6261736536342c000000000000000000000000000000000000000000000000602082015250565b6000614052602883613336565b915061405d82613ff6565b602882019050919050565b7f222c2261747472696275746573223a0000000000000000000000000000000000600082015250565b600061409e600f83613336565b91506140a982614068565b600f82019050919050565b7f7d00000000000000000000000000000000000000000000000000000000000000600082015250565b60006140ea600183613336565b91506140f5826140b4565b600182019050919050565b600061410b82613de5565b91506141178289613420565b915061412282613e31565b915061412e8288613420565b915061413982613e7d565b915061414482613f3b565b915061414f82613f87565b915061415b8287613420565b915061416682613fd3565b91506141728286613420565b915061417d82613e7d565b915061418882614045565b91506141948285613420565b915061419f82614091565b91506141ab8284613398565b91506141b6826140dd565b9150819050979650505050505050565b50565b60006141d6600083613336565b91506141e1826141c6565b600082019050919050565b60006141f7826141c9565b9150819050919050565b7f4e487b7100000000000000000000000000000000000000000000000000000000600052601160045260246000fd5b600061423b82612e49565b915061424683612e49565b925082820190508082111561425e5761425d614201565b5b92915050565b7f3c636972636c652063783d223930222063793d2233352220723d22313522206360008201527f6c6173733d22636f6c6f722d62746e222066696c6c3d22230000000000000000602082015250565b60006142c0603883613336565b91506142cb82614264565b603882019050919050565b7f222f3e3c636972636c652063783d22313330222063793d2233352220723d223160008201527f352220636c6173733d22636f6c6f722d62746e222066696c6c3d222300000000602082015250565b6000614332603c83613336565b915061433d826142d6565b603c82019050919050565b7f222f3e3c636972636c652063783d22313730222063793d2233352220723d223160008201527f352220636c6173733d22636f6c6f722d62746e222066696c6c3d222300000000602082015250565b60006143a4603c83613336565b91506143af82614348565b603c82019050919050565b7f222f3e3c636972636c652063783d22323130222063793d2233352220723d223160008201527f352220636c6173733d22636f6c6f722d62746e222066696c6c3d222300000000602082015250565b6000614416603c83613336565b9150614421826143ba565b603c82019050919050565b7f222f3e3c636972636c652063783d22323530222063793d2233352220723d223160008201527f352220636c6173733d22636f6c6f722d62746e222066696c6c3d222300000000602082015250565b6000614488603c83613336565b91506144938261442c565b603c82019050919050565b7f222f3e3c6720636c6173733d2273686170652d67726f757022207472616e736660008201527f6f726d3d227472616e736c617465283434352c20323029223e00000000000000602082015250565b60006144fa603983613336565b91506145058261449e565b603982019050919050565b7f3c2f673e3c6720636c6173733d2273686170652d67726f757022207472616e7360008201527f666f726d3d227472616e736c617465283438352c20323029223e000000000000602082015250565b600061456c603a83613336565b915061457782614510565b603a82019050919050565b7f3c2f673e3c6720636c6173733d2273686170652d67726f757022207472616e7360008201527f666f726d3d227472616e736c617465283532352c20323029223e000000000000602082015250565b60006145de603a83613336565b91506145e982614582565b603a82019050919050565b7f3c2f673e00000000000000000000000000000000000000000000000000000000600082015250565b600061462a600483613336565b9150614635826145f4565b600482019050919050565b600061464b826142b3565b9150614657828b613398565b915061466282614325565b915061466e828a613398565b915061467982614397565b91506146858289613398565b915061469082614409565b915061469c8288613398565b91506146a78261447b565b91506146b38287613398565b91506146be826144ed565b91506146ca8286613398565b91506146d58261455f565b91506146e18285613398565b91506146ec826145d1565b91506146f88284613398565b91506147038261461d565b91508190509998505050505050505050565b7f72656374222f3e3c7265637420783d22352220793d22372e352220776964746860008201527f3d22323022206865696768743d22313522000000000000000000000000000000602082015250565b6000614771603183613336565b915061477c82614715565b603182019050919050565b60006147938285613398565b915061479e82614764565b91506147aa8284613398565b91508190509392505050565b7f656c6c69707365222f3e3c656c6c697073652063783d223135222063793d223160008201527f35222072783d2238222072793d22382200000000000000000000000000000000602082015250565b6000614812603083613336565b915061481d826147b6565b603082019050919050565b60006148348285613398565b915061483f82614805565b915061484b8284613398565b91508190509392505050565b7f6c696e65222f3e3c6c696e652078313d2235222079313d223130222078323d2260008201527f3235222079323d22323022000000000000000000000000000000000000000000602082015250565b60006148b3602b83613336565b91506148be82614857565b602b82019050919050565b60006148d58285613398565b91506148e0826148a6565b91506148ec8284613398565b91508190509392505050565b7f706f6c796c696e65222f3e3c706f6c796c696e6520706f696e74733d22352c3160008201527f352031322e352c31302031372e352c32302032352c3135220000000000000000602082015250565b6000614954603883613336565b915061495f826148f8565b603882019050919050565b60006149768285613398565b915061498182614947565b915061498d8284613398565b91508190509392505050565b6149a281612a56565b82525050565b60006020820190506149bd6000830184614999565b92915050565b7f706f6c79676f6e2d33222f3e3c706f6c79676f6e20706f696e74733d2231352c60008201527f372032352c323320352c32332200000000000000000000000000000000000000602082015250565b6000614a1f602d83613336565b9150614a2a826149c3565b602d82019050919050565b6000614a418285613398565b9150614a4c82614a12565b9150614a588284613398565b91508190509392505050565b7f706f6c79676f6e2d35222f3e3c706f6c79676f6e20706f696e74733d2231352c60008201527f352032352c31322032302c32322e352031302c32322e3520352c313222000000602082015250565b6000614ac0603d83613336565b9150614acb82614a64565b603d82019050919050565b6000614ae28285613398565b9150614aed82614ab3565b9150614af98284613398565b91508190509392505050565b7f706f6c79676f6e2d36222f3e3c706f6c79676f6e20706f696e74733d2231302c60008201527f362032302c362032352c31352032302c32342031302c323420352c3135220000602082015250565b6000614b61603e83613336565b9150614b6c82614b05565b603e82019050919050565b6000614b838285613398565b9150614b8e82614b54565b9150614b9a8284613398565b91508190509392505050565b6000819050919050565b6000614bcb614bc6614bc184612a56565b614ba6565b612e49565b9050919050565b614bdb81614bb0565b82525050565b6000602082019050614bf66000830184614bd2565b92915050565b7f5b7b2274726169745f74797065223a22436f6c6f757231222c2276616c75652260008201527f3a22230000000000000000000000000000000000000000000000000000000000602082015250565b6000614c58602383613336565b9150614c6382614bfc565b602382019050919050565b7f227d2c7b2274726169745f74797065223a22436f6c6f757232222c2276616c7560008201527f65223a2223000000000000000000000000000000000000000000000000000000602082015250565b6000614cca602583613336565b9150614cd582614c6e565b602582019050919050565b7f227d2c7b2274726169745f74797065223a22436f6c6f757233222c2276616c7560008201527f65223a2223000000000000000000000000000000000000000000000000000000602082015250565b6000614d3c602583613336565b9150614d4782614ce0565b602582019050919050565b7f227d2c7b2274726169745f74797065223a22436f6c6f757234222c2276616c7560008201527f65223a2223000000000000000000000000000000000000000000000000000000602082015250565b6000614dae602583613336565b9150614db982614d52565b602582019050919050565b7f227d2c7b2274726169745f74797065223a22436f6c6f757235222c2276616c7560008201527f65223a2223000000000000000000000000000000000000000000000000000000602082015250565b6000614e20602583613336565b9150614e2b82614dc4565b602582019050919050565b7f227d2c7b2274726169745f74797065223a22536861706531222c2276616c756560008201527f223a220000000000000000000000000000000000000000000000000000000000602082015250565b6000614e92602383613336565b9150614e9d82614e36565b602382019050919050565b7f227d2c7b2274726169745f74797065223a22536861706532222c2276616c756560008201527f223a220000000000000000000000000000000000000000000000000000000000602082015250565b6000614f04602383613336565b9150614f0f82614ea8565b602382019050919050565b7f227d2c7b2274726169745f74797065223a22536861706533222c2276616c756560008201527f223a220000000000000000000000000000000000000000000000000000000000602082015250565b6000614f76602383613336565b9150614f8182614f1a565b602382019050919050565b7f227d5d0000000000000000000000000000000000000000000000000000000000600082015250565b6000614fc2600383613336565b9150614fcd82614f8c565b600382019050919050565b6000614fe382614c4b565b9150614fef828b613398565b9150614ffa82614cbd565b9150615006828a613398565b915061501182614d2f565b915061501d8289613398565b915061502882614da1565b91506150348288613398565b915061503f82614e13565b915061504b8287613398565b915061505682614e85565b91506150628286613398565b915061506d82614ef7565b91506150798285613398565b915061508482614f69565b91506150908284613398565b915061509b82614fb5565b91508190509998505050505050505050565b60006150b882612e49565b91506150c383612e49565b92508282026150d181612e49565b915082820484148315176150e8576150e7614201565b5b5092915050565b60006150fb8285613420565b91506151078284613420565b91508190509392505050565b7f4e487b7100000000000000000000000000000000000000000000000000000000600052601260045260246000fd5b600061514d82612e49565b915061515883612e49565b92508282039050818111156151705761516f614201565b5b92915050565b600061518182612e49565b91507fffffffffffffffffffffffffffffffffffffffffffffffffffffffffffffffff82036151b3576151b2614201565b5b600182019050919050565b60006151c982612e49565b91506151d483612e49565b9250826151e4576151e3615113565b5b828204905092915050565b600061520a61520561520084612a8f565b614ba6565b612e49565b9050919050565b61521a816151ef565b82525050565b60006020820190506152356000830184615211565b9291505056fe3c7265637420783d22302220793d2230222077696474683d22333022206865696768743d2233302220636c6173733d22746f6f6c2d62672220646174612d73686170653d222066696c6c3d226e6f6e6522207374726f6b653d222333333322207374726f6b652d77696474683d22322220636c6173733d2273686170652d69636f6e222f3e4142434445464748494a4b4c4d4e4f505152535455565758595a6162636465666768696a6b6c6d6e6f707172737475767778797a303132333435363738392b2fa2646970667358221220a8ef93beea560337faa87763d3bad0f750b87a17873ac1621e584221f2cf48ae64736f6c634300081c0033",
  "linkReferences": {},
  "deployedLinkReferences": {}
}